{
  "abi": [
    {
      "inputs": [
        {
          "internalType": "uint256",
          "name": "c",
          "type": "uint256"
        },
        {
          "internalType": "address payable",
          "name": "creator",
          "type": "address"
        }
      ],
      "stateMutability": "nonpayable",
      "type": "constructor"
    },
    {
      "inputs": [
        {
          "internalType": "uint256",
          "name": "index",
          "type": "uint256"
        }
      ],
      "name": "approveRequest",
      "outputs": [],
      "stateMutability": "nonpayable",
      "type": "function"
    },
    {
      "inputs": [
        {
          "internalType": "address",
          "name": "",
          "type": "address"
        }
      ],
      "name": "approvers",
      "outputs": [
        {
          "internalType": "bool",
          "name": "",
          "type": "bool"
        }
      ],
      "stateMutability": "view",
      "type": "function"
    },
    {
      "inputs": [],
      "name": "approversCount",
      "outputs": [
        {
          "internalType": "uint256",
          "name": "",
          "type": "uint256"
        }
      ],
      "stateMutability": "view",
      "type": "function"
    },
    {
      "inputs": [],
      "name": "contribute",
      "outputs": [],
      "stateMutability": "payable",
      "type": "function"
    },
    {
      "inputs": [
        {
          "internalType": "string",
          "name": "description",
          "type": "string"
        },
        {
          "internalType": "uint256",
          "name": "value",
          "type": "uint256"
        },
        {
          "internalType": "address payable",
          "name": "recipient",
          "type": "address"
        }
      ],
      "name": "createRequest",
      "outputs": [],
      "stateMutability": "nonpayable",
      "type": "function"
    },
    {
      "inputs": [
        {
          "internalType": "uint256",
          "name": "index",
          "type": "uint256"
        }
      ],
      "name": "finalizeRequest",
      "outputs": [],
      "stateMutability": "nonpayable",
      "type": "function"
    },
    {
      "inputs": [],
      "name": "getRequestCount",
      "outputs": [
        {
          "internalType": "uint256",
          "name": "",
          "type": "uint256"
        }
      ],
      "stateMutability": "view",
      "type": "function"
    },
    {
      "inputs": [],
      "name": "getSummary",
      "outputs": [
        {
          "internalType": "uint256",
          "name": "",
          "type": "uint256"
        },
        {
          "internalType": "uint256",
          "name": "",
          "type": "uint256"
        },
        {
          "internalType": "uint256",
          "name": "",
          "type": "uint256"
        },
        {
          "internalType": "uint256",
          "name": "",
          "type": "uint256"
        },
        {
          "internalType": "address",
          "name": "",
          "type": "address"
        }
      ],
      "stateMutability": "view",
      "type": "function"
    },
    {
      "inputs": [],
      "name": "manager",
      "outputs": [
        {
          "internalType": "address payable",
          "name": "",
          "type": "address"
        }
      ],
      "stateMutability": "view",
      "type": "function"
    },
    {
      "inputs": [],
      "name": "minimumContribution",
      "outputs": [
        {
          "internalType": "uint256",
          "name": "",
          "type": "uint256"
        }
      ],
      "stateMutability": "view",
      "type": "function"
    },
    {
      "inputs": [
        {
          "internalType": "uint256",
          "name": "",
          "type": "uint256"
        }
      ],
      "name": "requests",
      "outputs": [
        {
          "internalType": "string",
          "name": "description",
          "type": "string"
        },
        {
          "internalType": "uint256",
          "name": "value",
          "type": "uint256"
        },
        {
          "internalType": "address payable",
          "name": "recipient",
          "type": "address"
        },
        {
          "internalType": "bool",
          "name": "complete",
          "type": "bool"
        },
        {
          "internalType": "uint256",
          "name": "approvalCount",
          "type": "uint256"
        }
      ],
      "stateMutability": "view",
      "type": "function"
    }
  ],
  "devdoc": {
    "methods": {}
  },
  "evm": {
    "assembly": "    /* \"Campaign.sol\":453:3196  contract Campaign {\r... */\n  mstore(0x40, 0x80)\n    /* \"Campaign.sol\":978:1100  constructor(uint c, address payable creator) public {\r... */\n  callvalue\n    /* \"--CODEGEN--\":5:14   */\n  dup1\n    /* \"--CODEGEN--\":2:4   */\n  iszero\n  tag_1\n  jumpi\n    /* \"--CODEGEN--\":27:28   */\n  0x00\n    /* \"--CODEGEN--\":24:25   */\n  dup1\n    /* \"--CODEGEN--\":17:29   */\n  revert\n    /* \"--CODEGEN--\":2:4   */\ntag_1:\n    /* \"Campaign.sol\":978:1100  constructor(uint c, address payable creator) public {\r... */\n  pop\n  mload(0x40)\n  sub(codesize, bytecodeSize)\n  dup1\n  bytecodeSize\n  dup4\n  codecopy\n  dup2\n  dup2\n  add\n  0x40\n  mstore\n    /* \"--CODEGEN--\":15:17   */\n  0x40\n    /* \"--CODEGEN--\":10:13   */\n  dup2\n    /* \"--CODEGEN--\":7:18   */\n  lt\n    /* \"--CODEGEN--\":4:6   */\n  iszero\n  tag_2\n  jumpi\n    /* \"--CODEGEN--\":31:32   */\n  0x00\n    /* \"--CODEGEN--\":28:29   */\n  dup1\n    /* \"--CODEGEN--\":21:33   */\n  revert\n    /* \"--CODEGEN--\":4:6   */\ntag_2:\n    /* \"Campaign.sol\":978:1100  constructor(uint c, address payable creator) public {\r... */\n  dup2\n  add\n  swap1\n  dup1\n  dup1\n  mload\n  swap1\n  0x20\n  add\n  swap1\n  swap3\n  swap2\n  swap1\n  dup1\n  mload\n  swap1\n  0x20\n  add\n  swap1\n  swap3\n  swap2\n  swap1\n  pop\n  pop\n  pop\n    /* \"Campaign.sol\":1051:1058  creator */\n  dup1\n    /* \"Campaign.sol\":1041:1048  manager */\n  0x00\n  dup1\n    /* \"Campaign.sol\":1041:1058  manager = creator */\n  0x0100\n  exp\n  dup2\n  sload\n  dup2\n  0xffffffffffffffffffffffffffffffffffffffff\n  mul\n  not\n  and\n  swap1\n  dup4\n  0xffffffffffffffffffffffffffffffffffffffff\n  and\n  mul\n  or\n  swap1\n  sstore\n  pop\n    /* \"Campaign.sol\":1091:1092  c */\n  dup2\n    /* \"Campaign.sol\":1069:1088  minimumContribution */\n  0x01\n    /* \"Campaign.sol\":1069:1092  minimumContribution = c */\n  dup2\n  swap1\n  sstore\n  pop\n    /* \"Campaign.sol\":978:1100  constructor(uint c, address payable creator) public {\r... */\n  pop\n  pop\n    /* \"Campaign.sol\":453:3196  contract Campaign {\r... */\n  dataSize(sub_0)\n  dup1\n  dataOffset(sub_0)\n  0x00\n  codecopy\n  0x00\n  return\nstop\n\nsub_0: assembly {\n        /* \"Campaign.sol\":453:3196  contract Campaign {\r... */\n      mstore(0x40, 0x80)\n      jumpi(tag_1, lt(calldatasize, 0x04))\n      shr(0xe0, calldataload(0x00))\n      dup1\n      0x81d12c58\n      gt\n      tag_13\n      jumpi\n      dup1\n      0x81d12c58\n      eq\n      tag_7\n      jumpi\n      dup1\n      0x82fde093\n      eq\n      tag_8\n      jumpi\n      dup1\n      0x8a9cfd55\n      eq\n      tag_9\n      jumpi\n      dup1\n      0x937e09b1\n      eq\n      tag_10\n      jumpi\n      dup1\n      0xd7bb99ba\n      eq\n      tag_11\n      jumpi\n      dup1\n      0xd7d1bbdb\n      eq\n      tag_12\n      jumpi\n      jump(tag_1)\n    tag_13:\n      dup1\n      0x03441006\n      eq\n      tag_2\n      jumpi\n      dup1\n      0x0a144391\n      eq\n      tag_3\n      jumpi\n      dup1\n      0x3fad1834\n      eq\n      tag_4\n      jumpi\n      dup1\n      0x4051ddac\n      eq\n      tag_5\n      jumpi\n      dup1\n      0x481c6a75\n      eq\n      tag_6\n      jumpi\n    tag_1:\n        /* \"--CODEGEN--\":12:13   */\n      0x00\n        /* \"--CODEGEN--\":9:10   */\n      dup1\n        /* \"--CODEGEN--\":2:14   */\n      revert\n        /* \"Campaign.sol\":2346:2826  function finalizeRequest(uint index) public restricted {\r... */\n    tag_2:\n      callvalue\n        /* \"--CODEGEN--\":5:14   */\n      dup1\n        /* \"--CODEGEN--\":2:4   */\n      iszero\n      tag_14\n      jumpi\n        /* \"--CODEGEN--\":27:28   */\n      0x00\n        /* \"--CODEGEN--\":24:25   */\n      dup1\n        /* \"--CODEGEN--\":17:29   */\n      revert\n        /* \"--CODEGEN--\":2:4   */\n    tag_14:\n        /* \"Campaign.sol\":2346:2826  function finalizeRequest(uint index) public restricted {\r... */\n      pop\n      tag_15\n      0x04\n      dup1\n      calldatasize\n      sub\n        /* \"--CODEGEN--\":15:17   */\n      0x20\n        /* \"--CODEGEN--\":10:13   */\n      dup2\n        /* \"--CODEGEN--\":7:18   */\n      lt\n        /* \"--CODEGEN--\":4:6   */\n      iszero\n      tag_16\n      jumpi\n        /* \"--CODEGEN--\":31:32   */\n      0x00\n        /* \"--CODEGEN--\":28:29   */\n      dup1\n        /* \"--CODEGEN--\":21:33   */\n      revert\n        /* \"--CODEGEN--\":4:6   */\n    tag_16:\n        /* \"Campaign.sol\":2346:2826  function finalizeRequest(uint index) public restricted {\r... */\n      dup2\n      add\n      swap1\n      dup1\n      dup1\n      calldataload\n      swap1\n      0x20\n      add\n      swap1\n      swap3\n      swap2\n      swap1\n      pop\n      pop\n      pop\n      tag_17\n      jump\t// in\n    tag_15:\n      stop\n        /* \"Campaign.sol\":770:811  mapping(address => bool) public approvers */\n    tag_3:\n      callvalue\n        /* \"--CODEGEN--\":5:14   */\n      dup1\n        /* \"--CODEGEN--\":2:4   */\n      iszero\n      tag_18\n      jumpi\n        /* \"--CODEGEN--\":27:28   */\n      0x00\n        /* \"--CODEGEN--\":24:25   */\n      dup1\n        /* \"--CODEGEN--\":17:29   */\n      revert\n        /* \"--CODEGEN--\":2:4   */\n    tag_18:\n        /* \"Campaign.sol\":770:811  mapping(address => bool) public approvers */\n      pop\n      tag_19\n      0x04\n      dup1\n      calldatasize\n      sub\n        /* \"--CODEGEN--\":15:17   */\n      0x20\n        /* \"--CODEGEN--\":10:13   */\n      dup2\n        /* \"--CODEGEN--\":7:18   */\n      lt\n        /* \"--CODEGEN--\":4:6   */\n      iszero\n      tag_20\n      jumpi\n        /* \"--CODEGEN--\":31:32   */\n      0x00\n        /* \"--CODEGEN--\":28:29   */\n      dup1\n        /* \"--CODEGEN--\":21:33   */\n      revert\n        /* \"--CODEGEN--\":4:6   */\n    tag_20:\n        /* \"Campaign.sol\":770:811  mapping(address => bool) public approvers */\n      dup2\n      add\n      swap1\n      dup1\n      dup1\n      calldataload\n      0xffffffffffffffffffffffffffffffffffffffff\n      and\n      swap1\n      0x20\n      add\n      swap1\n      swap3\n      swap2\n      swap1\n      pop\n      pop\n      pop\n      tag_21\n      jump\t// in\n    tag_19:\n      mload(0x40)\n      dup1\n      dup3\n      iszero\n      iszero\n      iszero\n      iszero\n      dup2\n      mstore\n      0x20\n      add\n      swap2\n      pop\n      pop\n      mload(0x40)\n      dup1\n      swap2\n      sub\n      swap1\n      return\n        /* \"Campaign.sol\":3097:3193  function getRequestCount() public view returns( uint ) {\r... */\n    tag_4:\n      callvalue\n        /* \"--CODEGEN--\":5:14   */\n      dup1\n        /* \"--CODEGEN--\":2:4   */\n      iszero\n      tag_22\n      jumpi\n        /* \"--CODEGEN--\":27:28   */\n      0x00\n        /* \"--CODEGEN--\":24:25   */\n      dup1\n        /* \"--CODEGEN--\":17:29   */\n      revert\n        /* \"--CODEGEN--\":2:4   */\n    tag_22:\n        /* \"Campaign.sol\":3097:3193  function getRequestCount() public view returns( uint ) {\r... */\n      pop\n      tag_23\n      tag_24\n      jump\t// in\n    tag_23:\n      mload(0x40)\n      dup1\n      dup3\n      dup2\n      mstore\n      0x20\n      add\n      swap2\n      pop\n      pop\n      mload(0x40)\n      dup1\n      swap2\n      sub\n      swap1\n      return\n        /* \"Campaign.sol\":2832:3089  function getSummary() public view returns( uint, uint, uint, uint, address ) {\r... */\n    tag_5:\n      callvalue\n        /* \"--CODEGEN--\":5:14   */\n      dup1\n        /* \"--CODEGEN--\":2:4   */\n      iszero\n      tag_25\n      jumpi\n        /* \"--CODEGEN--\":27:28   */\n      0x00\n        /* \"--CODEGEN--\":24:25   */\n      dup1\n        /* \"--CODEGEN--\":17:29   */\n      revert\n        /* \"--CODEGEN--\":2:4   */\n    tag_25:\n        /* \"Campaign.sol\":2832:3089  function getSummary() public view returns( uint, uint, uint, uint, address ) {\r... */\n      pop\n      tag_26\n      tag_27\n      jump\t// in\n    tag_26:\n      mload(0x40)\n      dup1\n      dup7\n      dup2\n      mstore\n      0x20\n      add\n      dup6\n      dup2\n      mstore\n      0x20\n      add\n      dup5\n      dup2\n      mstore\n      0x20\n      add\n      dup4\n      dup2\n      mstore\n      0x20\n      add\n      dup3\n      0xffffffffffffffffffffffffffffffffffffffff\n      and\n      0xffffffffffffffffffffffffffffffffffffffff\n      and\n      dup2\n      mstore\n      0x20\n      add\n      swap6\n      pop\n      pop\n      pop\n      pop\n      pop\n      pop\n      mload(0x40)\n      dup1\n      swap2\n      sub\n      swap1\n      return\n        /* \"Campaign.sol\":695:725  address payable public manager */\n    tag_6:\n      callvalue\n        /* \"--CODEGEN--\":5:14   */\n      dup1\n        /* \"--CODEGEN--\":2:4   */\n      iszero\n      tag_28\n      jumpi\n        /* \"--CODEGEN--\":27:28   */\n      0x00\n        /* \"--CODEGEN--\":24:25   */\n      dup1\n        /* \"--CODEGEN--\":17:29   */\n      revert\n        /* \"--CODEGEN--\":2:4   */\n    tag_28:\n        /* \"Campaign.sol\":695:725  address payable public manager */\n      pop\n      tag_29\n      tag_30\n      jump\t// in\n    tag_29:\n      mload(0x40)\n      dup1\n      dup3\n      0xffffffffffffffffffffffffffffffffffffffff\n      and\n      0xffffffffffffffffffffffffffffffffffffffff\n      and\n      dup2\n      mstore\n      0x20\n      add\n      swap2\n      pop\n      pop\n      mload(0x40)\n      dup1\n      swap2\n      sub\n      swap1\n      return\n        /* \"Campaign.sol\":853:878  Request[] public requests */\n    tag_7:\n      callvalue\n        /* \"--CODEGEN--\":5:14   */\n      dup1\n        /* \"--CODEGEN--\":2:4   */\n      iszero\n      tag_31\n      jumpi\n        /* \"--CODEGEN--\":27:28   */\n      0x00\n        /* \"--CODEGEN--\":24:25   */\n      dup1\n        /* \"--CODEGEN--\":17:29   */\n      revert\n        /* \"--CODEGEN--\":2:4   */\n    tag_31:\n        /* \"Campaign.sol\":853:878  Request[] public requests */\n      pop\n      tag_32\n      0x04\n      dup1\n      calldatasize\n      sub\n        /* \"--CODEGEN--\":15:17   */\n      0x20\n        /* \"--CODEGEN--\":10:13   */\n      dup2\n        /* \"--CODEGEN--\":7:18   */\n      lt\n        /* \"--CODEGEN--\":4:6   */\n      iszero\n      tag_33\n      jumpi\n        /* \"--CODEGEN--\":31:32   */\n      0x00\n        /* \"--CODEGEN--\":28:29   */\n      dup1\n        /* \"--CODEGEN--\":21:33   */\n      revert\n        /* \"--CODEGEN--\":4:6   */\n    tag_33:\n        /* \"Campaign.sol\":853:878  Request[] public requests */\n      dup2\n      add\n      swap1\n      dup1\n      dup1\n      calldataload\n      swap1\n      0x20\n      add\n      swap1\n      swap3\n      swap2\n      swap1\n      pop\n      pop\n      pop\n      tag_34\n      jump\t// in\n    tag_32:\n      mload(0x40)\n      dup1\n      dup1\n      0x20\n      add\n      dup7\n      dup2\n      mstore\n      0x20\n      add\n      dup6\n      0xffffffffffffffffffffffffffffffffffffffff\n      and\n      0xffffffffffffffffffffffffffffffffffffffff\n      and\n      dup2\n      mstore\n      0x20\n      add\n      dup5\n      iszero\n      iszero\n      iszero\n      iszero\n      dup2\n      mstore\n      0x20\n      add\n      dup4\n      dup2\n      mstore\n      0x20\n      add\n      dup3\n      dup2\n      sub\n      dup3\n      mstore\n      dup8\n      dup2\n      dup2\n      mload\n      dup2\n      mstore\n      0x20\n      add\n      swap2\n      pop\n      dup1\n      mload\n      swap1\n      0x20\n      add\n      swap1\n      dup1\n      dup4\n      dup4\n        /* \"--CODEGEN--\":23:24   */\n      0x00\n        /* \"--CODEGEN--\":8:108   */\n    tag_35:\n        /* \"--CODEGEN--\":33:36   */\n      dup4\n        /* \"--CODEGEN--\":30:31   */\n      dup2\n        /* \"--CODEGEN--\":27:37   */\n      lt\n        /* \"--CODEGEN--\":8:108   */\n      iszero\n      tag_37\n      jumpi\n        /* \"--CODEGEN--\":99:100   */\n      dup1\n        /* \"--CODEGEN--\":94:97   */\n      dup3\n        /* \"--CODEGEN--\":90:101   */\n      add\n        /* \"--CODEGEN--\":84:102   */\n      mload\n        /* \"--CODEGEN--\":80:81   */\n      dup2\n        /* \"--CODEGEN--\":75:78   */\n      dup5\n        /* \"--CODEGEN--\":71:82   */\n      add\n        /* \"--CODEGEN--\":64:103   */\n      mstore\n        /* \"--CODEGEN--\":52:54   */\n      0x20\n        /* \"--CODEGEN--\":49:50   */\n      dup2\n        /* \"--CODEGEN--\":45:55   */\n      add\n        /* \"--CODEGEN--\":40:55   */\n      swap1\n      pop\n        /* \"--CODEGEN--\":8:108   */\n      jump(tag_35)\n    tag_37:\n        /* \"--CODEGEN--\":12:26   */\n      pop\n        /* \"Campaign.sol\":853:878  Request[] public requests */\n      pop\n      pop\n      pop\n      swap1\n      pop\n      swap1\n      dup2\n      add\n      swap1\n      0x1f\n      and\n      dup1\n      iszero\n      tag_38\n      jumpi\n      dup1\n      dup3\n      sub\n      dup1\n      mload\n      0x01\n      dup4\n      0x20\n      sub\n      0x0100\n      exp\n      sub\n      not\n      and\n      dup2\n      mstore\n      0x20\n      add\n      swap2\n      pop\n    tag_38:\n      pop\n      swap7\n      pop\n      pop\n      pop\n      pop\n      pop\n      pop\n      pop\n      mload(0x40)\n      dup1\n      swap2\n      sub\n      swap1\n      return\n        /* \"Campaign.sol\":818:844  uint public approversCount */\n    tag_8:\n      callvalue\n        /* \"--CODEGEN--\":5:14   */\n      dup1\n        /* \"--CODEGEN--\":2:4   */\n      iszero\n      tag_39\n      jumpi\n        /* \"--CODEGEN--\":27:28   */\n      0x00\n        /* \"--CODEGEN--\":24:25   */\n      dup1\n        /* \"--CODEGEN--\":17:29   */\n      revert\n        /* \"--CODEGEN--\":2:4   */\n    tag_39:\n        /* \"Campaign.sol\":818:844  uint public approversCount */\n      pop\n      tag_40\n      tag_41\n      jump\t// in\n    tag_40:\n      mload(0x40)\n      dup1\n      dup3\n      dup2\n      mstore\n      0x20\n      add\n      swap2\n      pop\n      pop\n      mload(0x40)\n      dup1\n      swap2\n      sub\n      swap1\n      return\n        /* \"Campaign.sol\":1381:1876  function createRequest(string memory description, uint value, address payable recipient) public restricted {\r... */\n    tag_9:\n      callvalue\n        /* \"--CODEGEN--\":5:14   */\n      dup1\n        /* \"--CODEGEN--\":2:4   */\n      iszero\n      tag_42\n      jumpi\n        /* \"--CODEGEN--\":27:28   */\n      0x00\n        /* \"--CODEGEN--\":24:25   */\n      dup1\n        /* \"--CODEGEN--\":17:29   */\n      revert\n        /* \"--CODEGEN--\":2:4   */\n    tag_42:\n        /* \"Campaign.sol\":1381:1876  function createRequest(string memory description, uint value, address payable recipient) public restricted {\r... */\n      pop\n      tag_43\n      0x04\n      dup1\n      calldatasize\n      sub\n        /* \"--CODEGEN--\":15:17   */\n      0x60\n        /* \"--CODEGEN--\":10:13   */\n      dup2\n        /* \"--CODEGEN--\":7:18   */\n      lt\n        /* \"--CODEGEN--\":4:6   */\n      iszero\n      tag_44\n      jumpi\n        /* \"--CODEGEN--\":31:32   */\n      0x00\n        /* \"--CODEGEN--\":28:29   */\n      dup1\n        /* \"--CODEGEN--\":21:33   */\n      revert\n        /* \"--CODEGEN--\":4:6   */\n    tag_44:\n        /* \"Campaign.sol\":1381:1876  function createRequest(string memory description, uint value, address payable recipient) public restricted {\r... */\n      dup2\n      add\n      swap1\n      dup1\n      dup1\n      calldataload\n      swap1\n      0x20\n      add\n      swap1\n        /* \"--CODEGEN--\":27:38   */\n      0x0100000000\n        /* \"--CODEGEN--\":14:25   */\n      dup2\n        /* \"--CODEGEN--\":11:39   */\n      gt\n        /* \"--CODEGEN--\":8:10   */\n      iszero\n      tag_45\n      jumpi\n        /* \"--CODEGEN--\":52:53   */\n      0x00\n        /* \"--CODEGEN--\":49:50   */\n      dup1\n        /* \"--CODEGEN--\":42:54   */\n      revert\n        /* \"--CODEGEN--\":8:10   */\n    tag_45:\n        /* \"Campaign.sol\":1381:1876  function createRequest(string memory description, uint value, address payable recipient) public restricted {\r... */\n      dup3\n      add\n        /* \"--CODEGEN--\":41:50   */\n      dup4\n        /* \"--CODEGEN--\":34:38   */\n      0x20\n        /* \"--CODEGEN--\":18:32   */\n      dup3\n        /* \"--CODEGEN--\":14:39   */\n      add\n        /* \"--CODEGEN--\":11:51   */\n      gt\n        /* \"--CODEGEN--\":8:10   */\n      iszero\n      tag_46\n      jumpi\n        /* \"--CODEGEN--\":64:65   */\n      0x00\n        /* \"--CODEGEN--\":61:62   */\n      dup1\n        /* \"--CODEGEN--\":54:66   */\n      revert\n        /* \"--CODEGEN--\":8:10   */\n    tag_46:\n        /* \"Campaign.sol\":1381:1876  function createRequest(string memory description, uint value, address payable recipient) public restricted {\r... */\n      dup1\n      calldataload\n      swap1\n      0x20\n      add\n      swap2\n        /* \"--CODEGEN--\":100:109   */\n      dup5\n        /* \"--CODEGEN--\":95:96   */\n      0x01\n        /* \"--CODEGEN--\":81:93   */\n      dup4\n        /* \"--CODEGEN--\":77:97   */\n      mul\n        /* \"--CODEGEN--\":67:75   */\n      dup5\n        /* \"--CODEGEN--\":63:98   */\n      add\n        /* \"--CODEGEN--\":60:110   */\n      gt\n        /* \"--CODEGEN--\":39:50   */\n      0x0100000000\n        /* \"--CODEGEN--\":25:37   */\n      dup4\n        /* \"--CODEGEN--\":22:51   */\n      gt\n        /* \"--CODEGEN--\":11:118   */\n      or\n        /* \"--CODEGEN--\":8:10   */\n      iszero\n      tag_47\n      jumpi\n        /* \"--CODEGEN--\":131:132   */\n      0x00\n        /* \"--CODEGEN--\":128:129   */\n      dup1\n        /* \"--CODEGEN--\":121:133   */\n      revert\n        /* \"--CODEGEN--\":8:10   */\n    tag_47:\n        /* \"Campaign.sol\":1381:1876  function createRequest(string memory description, uint value, address payable recipient) public restricted {\r... */\n      swap2\n      swap1\n      dup1\n      dup1\n      0x1f\n      add\n      0x20\n      dup1\n      swap2\n      div\n      mul\n      0x20\n      add\n      mload(0x40)\n      swap1\n      dup2\n      add\n      0x40\n      mstore\n      dup1\n      swap4\n      swap3\n      swap2\n      swap1\n      dup2\n      dup2\n      mstore\n      0x20\n      add\n      dup4\n      dup4\n        /* \"--CODEGEN--\":30:33   */\n      dup1\n        /* \"--CODEGEN--\":22:28   */\n      dup3\n        /* \"--CODEGEN--\":14:20   */\n      dup5\n        /* \"--CODEGEN--\":1:34   */\n      calldatacopy\n        /* \"--CODEGEN--\":99:100   */\n      0x00\n        /* \"--CODEGEN--\":93:96   */\n      dup2\n        /* \"--CODEGEN--\":85:91   */\n      dup5\n        /* \"--CODEGEN--\":81:97   */\n      add\n        /* \"--CODEGEN--\":74:101   */\n      mstore\n        /* \"--CODEGEN--\":137:141   */\n      0x1f\n        /* \"--CODEGEN--\":133:142   */\n      not\n        /* \"--CODEGEN--\":126:130   */\n      0x1f\n        /* \"--CODEGEN--\":121:124   */\n      dup3\n        /* \"--CODEGEN--\":117:131   */\n      add\n        /* \"--CODEGEN--\":113:143   */\n      and\n        /* \"--CODEGEN--\":106:143   */\n      swap1\n      pop\n        /* \"--CODEGEN--\":169:172   */\n      dup1\n        /* \"--CODEGEN--\":161:167   */\n      dup4\n        /* \"--CODEGEN--\":157:173   */\n      add\n        /* \"--CODEGEN--\":147:173   */\n      swap3\n      pop\n        /* \"Campaign.sol\":1381:1876  function createRequest(string memory description, uint value, address payable recipient) public restricted {\r... */\n      pop\n      pop\n      pop\n      pop\n      pop\n      pop\n      swap2\n      swap3\n      swap2\n      swap3\n      swap1\n      dup1\n      calldataload\n      swap1\n      0x20\n      add\n      swap1\n      swap3\n      swap2\n      swap1\n      dup1\n      calldataload\n      0xffffffffffffffffffffffffffffffffffffffff\n      and\n      swap1\n      0x20\n      add\n      swap1\n      swap3\n      swap2\n      swap1\n      pop\n      pop\n      pop\n      tag_48\n      jump\t// in\n    tag_43:\n      stop\n        /* \"Campaign.sol\":732:763  uint public minimumContribution */\n    tag_10:\n      callvalue\n        /* \"--CODEGEN--\":5:14   */\n      dup1\n        /* \"--CODEGEN--\":2:4   */\n      iszero\n      tag_49\n      jumpi\n        /* \"--CODEGEN--\":27:28   */\n      0x00\n        /* \"--CODEGEN--\":24:25   */\n      dup1\n        /* \"--CODEGEN--\":17:29   */\n      revert\n        /* \"--CODEGEN--\":2:4   */\n    tag_49:\n        /* \"Campaign.sol\":732:763  uint public minimumContribution */\n      pop\n      tag_50\n      tag_51\n      jump\t// in\n    tag_50:\n      mload(0x40)\n      dup1\n      dup3\n      dup2\n      mstore\n      0x20\n      add\n      swap2\n      pop\n      pop\n      mload(0x40)\n      dup1\n      swap2\n      sub\n      swap1\n      return\n        /* \"Campaign.sol\":1108:1373  function contribute() public payable {\r... */\n    tag_11:\n      tag_52\n      tag_53\n      jump\t// in\n    tag_52:\n      stop\n        /* \"Campaign.sol\":1884:2338  function approveRequest(uint index) public {\r... */\n    tag_12:\n      callvalue\n        /* \"--CODEGEN--\":5:14   */\n      dup1\n        /* \"--CODEGEN--\":2:4   */\n      iszero\n      tag_54\n      jumpi\n        /* \"--CODEGEN--\":27:28   */\n      0x00\n        /* \"--CODEGEN--\":24:25   */\n      dup1\n        /* \"--CODEGEN--\":17:29   */\n      revert\n        /* \"--CODEGEN--\":2:4   */\n    tag_54:\n        /* \"Campaign.sol\":1884:2338  function approveRequest(uint index) public {\r... */\n      pop\n      tag_55\n      0x04\n      dup1\n      calldatasize\n      sub\n        /* \"--CODEGEN--\":15:17   */\n      0x20\n        /* \"--CODEGEN--\":10:13   */\n      dup2\n        /* \"--CODEGEN--\":7:18   */\n      lt\n        /* \"--CODEGEN--\":4:6   */\n      iszero\n      tag_56\n      jumpi\n        /* \"--CODEGEN--\":31:32   */\n      0x00\n        /* \"--CODEGEN--\":28:29   */\n      dup1\n        /* \"--CODEGEN--\":21:33   */\n      revert\n        /* \"--CODEGEN--\":4:6   */\n    tag_56:\n        /* \"Campaign.sol\":1884:2338  function approveRequest(uint index) public {\r... */\n      dup2\n      add\n      swap1\n      dup1\n      dup1\n      calldataload\n      swap1\n      0x20\n      add\n      swap1\n      swap3\n      swap2\n      swap1\n      pop\n      pop\n      pop\n      tag_57\n      jump\t// in\n    tag_55:\n      stop\n        /* \"Campaign.sol\":2346:2826  function finalizeRequest(uint index) public restricted {\r... */\n    tag_17:\n        /* \"Campaign.sol\":942:949  manager */\n      0x00\n      dup1\n      swap1\n      sload\n      swap1\n      0x0100\n      exp\n      swap1\n      div\n      0xffffffffffffffffffffffffffffffffffffffff\n      and\n        /* \"Campaign.sol\":928:949  msg.sender == manager */\n      0xffffffffffffffffffffffffffffffffffffffff\n      and\n        /* \"Campaign.sol\":928:938  msg.sender */\n      caller\n        /* \"Campaign.sol\":928:949  msg.sender == manager */\n      0xffffffffffffffffffffffffffffffffffffffff\n      and\n      eq\n        /* \"Campaign.sol\":920:950  require(msg.sender == manager) */\n      tag_59\n      jumpi\n        /* \"--CODEGEN--\":12:13   */\n      0x00\n        /* \"--CODEGEN--\":9:10   */\n      dup1\n        /* \"--CODEGEN--\":2:14   */\n      revert\n        /* \"Campaign.sol\":920:950  require(msg.sender == manager) */\n    tag_59:\n        /* \"Campaign.sol\":2546:2554  requests */\n      0x04\n        /* \"Campaign.sol\":2555:2560  index */\n      dup2\n        /* \"Campaign.sol\":2546:2561  requests[index] */\n      dup2\n      sload\n      dup2\n      lt\n      tag_61\n      jumpi\n      invalid\n    tag_61:\n      swap1\n      0x00\n      mstore\n      keccak256(0x00, 0x20)\n      swap1\n      0x05\n      mul\n      add\n        /* \"Campaign.sol\":2546:2570  requests[index].complete */\n      0x02\n      add\n      0x14\n      swap1\n      sload\n      swap1\n      0x0100\n      exp\n      swap1\n      div\n      0xff\n      and\n        /* \"Campaign.sol\":2545:2570  !requests[index].complete */\n      iszero\n        /* \"Campaign.sol\":2537:2571  require(!requests[index].complete) */\n      tag_63\n      jumpi\n        /* \"--CODEGEN--\":12:13   */\n      0x00\n        /* \"--CODEGEN--\":9:10   */\n      dup1\n        /* \"--CODEGEN--\":2:14   */\n      revert\n        /* \"Campaign.sol\":2537:2571  require(!requests[index].complete) */\n    tag_63:\n        /* \"Campaign.sol\":2638:2639  2 */\n      0x02\n        /* \"Campaign.sol\":2623:2637  approversCount */\n      sload(0x03)\n        /* \"Campaign.sol\":2623:2639  approversCount/2 */\n      dup2\n      tag_64\n      jumpi\n      invalid\n    tag_64:\n      div\n        /* \"Campaign.sol\":2590:2598  requests */\n      0x04\n        /* \"Campaign.sol\":2599:2604  index */\n      dup3\n        /* \"Campaign.sol\":2590:2605  requests[index] */\n      dup2\n      sload\n      dup2\n      lt\n      tag_65\n      jumpi\n      invalid\n    tag_65:\n      swap1\n      0x00\n      mstore\n      keccak256(0x00, 0x20)\n      swap1\n      0x05\n      mul\n      add\n        /* \"Campaign.sol\":2590:2619  requests[index].approvalCount */\n      0x03\n      add\n      sload\n        /* \"Campaign.sol\":2590:2640  requests[index].approvalCount > (approversCount/2) */\n      gt\n        /* \"Campaign.sol\":2582:2641  require(requests[index].approvalCount > (approversCount/2)) */\n      tag_67\n      jumpi\n        /* \"--CODEGEN--\":12:13   */\n      0x00\n        /* \"--CODEGEN--\":9:10   */\n      dup1\n        /* \"--CODEGEN--\":2:14   */\n      revert\n        /* \"Campaign.sol\":2582:2641  require(requests[index].approvalCount > (approversCount/2)) */\n    tag_67:\n        /* \"Campaign.sol\":2719:2727  requests */\n      0x04\n        /* \"Campaign.sol\":2728:2733  index */\n      dup2\n        /* \"Campaign.sol\":2719:2734  requests[index] */\n      dup2\n      sload\n      dup2\n      lt\n      tag_68\n      jumpi\n      invalid\n    tag_68:\n      swap1\n      0x00\n      mstore\n      keccak256(0x00, 0x20)\n      swap1\n      0x05\n      mul\n      add\n        /* \"Campaign.sol\":2719:2744  requests[index].recipient */\n      0x02\n      add\n      0x00\n      swap1\n      sload\n      swap1\n      0x0100\n      exp\n      swap1\n      div\n      0xffffffffffffffffffffffffffffffffffffffff\n      and\n        /* \"Campaign.sol\":2719:2753  requests[index].recipient.transfer */\n      0xffffffffffffffffffffffffffffffffffffffff\n      and\n        /* \"Campaign.sol\":2719:2776  requests[index].recipient.transfer(requests[index].value) */\n      0x08fc\n        /* \"Campaign.sol\":2754:2762  requests */\n      0x04\n        /* \"Campaign.sol\":2763:2768  index */\n      dup4\n        /* \"Campaign.sol\":2754:2769  requests[index] */\n      dup2\n      sload\n      dup2\n      lt\n      tag_70\n      jumpi\n      invalid\n    tag_70:\n      swap1\n      0x00\n      mstore\n      keccak256(0x00, 0x20)\n      swap1\n      0x05\n      mul\n      add\n        /* \"Campaign.sol\":2754:2775  requests[index].value */\n      0x01\n      add\n      sload\n        /* \"Campaign.sol\":2719:2776  requests[index].recipient.transfer(requests[index].value) */\n      swap1\n      dup2\n      iszero\n      mul\n      swap1\n      mload(0x40)\n      0x00\n      mload(0x40)\n      dup1\n      dup4\n      sub\n      dup2\n      dup6\n      dup9\n      dup9\n      call\n      swap4\n      pop\n      pop\n      pop\n      pop\n      iszero\n        /* \"--CODEGEN--\":8:17   */\n      dup1\n        /* \"--CODEGEN--\":5:7   */\n      iszero\n      tag_73\n      jumpi\n        /* \"--CODEGEN--\":45:61   */\n      returndatasize\n        /* \"--CODEGEN--\":42:43   */\n      0x00\n        /* \"--CODEGEN--\":39:40   */\n      dup1\n        /* \"--CODEGEN--\":24:62   */\n      returndatacopy\n        /* \"--CODEGEN--\":77:93   */\n      returndatasize\n        /* \"--CODEGEN--\":74:75   */\n      0x00\n        /* \"--CODEGEN--\":67:94   */\n      revert\n        /* \"--CODEGEN--\":5:7   */\n    tag_73:\n        /* \"Campaign.sol\":2719:2776  requests[index].recipient.transfer(requests[index].value) */\n      pop\n        /* \"Campaign.sol\":2814:2818  true */\n      0x01\n        /* \"Campaign.sol\":2787:2795  requests */\n      0x04\n        /* \"Campaign.sol\":2796:2801  index */\n      dup3\n        /* \"Campaign.sol\":2787:2802  requests[index] */\n      dup2\n      sload\n      dup2\n      lt\n      tag_74\n      jumpi\n      invalid\n    tag_74:\n      swap1\n      0x00\n      mstore\n      keccak256(0x00, 0x20)\n      swap1\n      0x05\n      mul\n      add\n        /* \"Campaign.sol\":2787:2811  requests[index].complete */\n      0x02\n      add\n      0x14\n        /* \"Campaign.sol\":2787:2818  requests[index].complete = true */\n      0x0100\n      exp\n      dup2\n      sload\n      dup2\n      0xff\n      mul\n      not\n      and\n      swap1\n      dup4\n      iszero\n      iszero\n      mul\n      or\n      swap1\n      sstore\n      pop\n        /* \"Campaign.sol\":2346:2826  function finalizeRequest(uint index) public restricted {\r... */\n      pop\n      jump\t// out\n        /* \"Campaign.sol\":770:811  mapping(address => bool) public approvers */\n    tag_21:\n      mstore(0x20, 0x02)\n      dup1\n      0x00\n      mstore\n      keccak256(0x00, 0x40)\n      0x00\n      swap2\n      pop\n      sload\n      swap1\n      0x0100\n      exp\n      swap1\n      div\n      0xff\n      and\n      dup2\n      jump\t// out\n        /* \"Campaign.sol\":3097:3193  function getRequestCount() public view returns( uint ) {\r... */\n    tag_24:\n        /* \"Campaign.sol\":3145:3149  uint */\n      0x00\n        /* \"Campaign.sol\":3170:3178  requests */\n      0x04\n        /* \"Campaign.sol\":3170:3185  requests.length */\n      dup1\n      sload\n      swap1\n      pop\n        /* \"Campaign.sol\":3163:3185  return requests.length */\n      swap1\n      pop\n        /* \"Campaign.sol\":3097:3193  function getRequestCount() public view returns( uint ) {\r... */\n      swap1\n      jump\t// out\n        /* \"Campaign.sol\":2832:3089  function getSummary() public view returns( uint, uint, uint, uint, address ) {\r... */\n    tag_27:\n        /* \"Campaign.sol\":2875:2879  uint */\n      0x00\n        /* \"Campaign.sol\":2881:2885  uint */\n      dup1\n        /* \"Campaign.sol\":2887:2891  uint */\n      0x00\n        /* \"Campaign.sol\":2893:2897  uint */\n      dup1\n        /* \"Campaign.sol\":2899:2906  address */\n      0x00\n        /* \"Campaign.sol\":2940:2959  minimumContribution */\n      sload(0x01)\n        /* \"Campaign.sol\":2972:2993  address(this).balance */\n      selfbalance\n        /* \"Campaign.sol\":3006:3014  requests */\n      0x04\n        /* \"Campaign.sol\":3006:3021  requests.length */\n      dup1\n      sload\n      swap1\n      pop\n        /* \"Campaign.sol\":3034:3048  approversCount */\n      sload(0x03)\n        /* \"Campaign.sol\":3061:3068  manager */\n      0x00\n      dup1\n      swap1\n      sload\n      swap1\n      0x0100\n      exp\n      swap1\n      div\n      0xffffffffffffffffffffffffffffffffffffffff\n      and\n        /* \"Campaign.sol\":2920:3081  return (\r... */\n      dup1\n      swap1\n      pop\n      swap5\n      pop\n      swap5\n      pop\n      swap5\n      pop\n      swap5\n      pop\n      swap5\n      pop\n        /* \"Campaign.sol\":2832:3089  function getSummary() public view returns( uint, uint, uint, uint, address ) {\r... */\n      swap1\n      swap2\n      swap3\n      swap4\n      swap5\n      jump\t// out\n        /* \"Campaign.sol\":695:725  address payable public manager */\n    tag_30:\n      0x00\n      dup1\n      swap1\n      sload\n      swap1\n      0x0100\n      exp\n      swap1\n      div\n      0xffffffffffffffffffffffffffffffffffffffff\n      and\n      dup2\n      jump\t// out\n        /* \"Campaign.sol\":853:878  Request[] public requests */\n    tag_34:\n      0x04\n      dup2\n      dup2\n      sload\n      dup2\n      lt\n      tag_78\n      jumpi\n      invalid\n    tag_78:\n      swap1\n      0x00\n      mstore\n      keccak256(0x00, 0x20)\n      swap1\n      0x05\n      mul\n      add\n      0x00\n      swap2\n      pop\n      swap1\n      pop\n      dup1\n      0x00\n      add\n      dup1\n      sload\n      0x01\n      dup2\n      0x01\n      and\n      iszero\n      0x0100\n      mul\n      sub\n      and\n      0x02\n      swap1\n      div\n      dup1\n      0x1f\n      add\n      0x20\n      dup1\n      swap2\n      div\n      mul\n      0x20\n      add\n      mload(0x40)\n      swap1\n      dup2\n      add\n      0x40\n      mstore\n      dup1\n      swap3\n      swap2\n      swap1\n      dup2\n      dup2\n      mstore\n      0x20\n      add\n      dup3\n      dup1\n      sload\n      0x01\n      dup2\n      0x01\n      and\n      iszero\n      0x0100\n      mul\n      sub\n      and\n      0x02\n      swap1\n      div\n      dup1\n      iszero\n      tag_80\n      jumpi\n      dup1\n      0x1f\n      lt\n      tag_81\n      jumpi\n      0x0100\n      dup1\n      dup4\n      sload\n      div\n      mul\n      dup4\n      mstore\n      swap2\n      0x20\n      add\n      swap2\n      jump(tag_80)\n    tag_81:\n      dup3\n      add\n      swap2\n      swap1\n      0x00\n      mstore\n      keccak256(0x00, 0x20)\n      swap1\n    tag_82:\n      dup2\n      sload\n      dup2\n      mstore\n      swap1\n      0x01\n      add\n      swap1\n      0x20\n      add\n      dup1\n      dup4\n      gt\n      tag_82\n      jumpi\n      dup3\n      swap1\n      sub\n      0x1f\n      and\n      dup3\n      add\n      swap2\n    tag_80:\n      pop\n      pop\n      pop\n      pop\n      pop\n      swap1\n      dup1\n      0x01\n      add\n      sload\n      swap1\n      dup1\n      0x02\n      add\n      0x00\n      swap1\n      sload\n      swap1\n      0x0100\n      exp\n      swap1\n      div\n      0xffffffffffffffffffffffffffffffffffffffff\n      and\n      swap1\n      dup1\n      0x02\n      add\n      0x14\n      swap1\n      sload\n      swap1\n      0x0100\n      exp\n      swap1\n      div\n      0xff\n      and\n      swap1\n      dup1\n      0x03\n      add\n      sload\n      swap1\n      pop\n      dup6\n      jump\t// out\n        /* \"Campaign.sol\":818:844  uint public approversCount */\n    tag_41:\n      sload(0x03)\n      dup2\n      jump\t// out\n        /* \"Campaign.sol\":1381:1876  function createRequest(string memory description, uint value, address payable recipient) public restricted {\r... */\n    tag_48:\n        /* \"Campaign.sol\":942:949  manager */\n      0x00\n      dup1\n      swap1\n      sload\n      swap1\n      0x0100\n      exp\n      swap1\n      div\n      0xffffffffffffffffffffffffffffffffffffffff\n      and\n        /* \"Campaign.sol\":928:949  msg.sender == manager */\n      0xffffffffffffffffffffffffffffffffffffffff\n      and\n        /* \"Campaign.sol\":928:938  msg.sender */\n      caller\n        /* \"Campaign.sol\":928:949  msg.sender == manager */\n      0xffffffffffffffffffffffffffffffffffffffff\n      and\n      eq\n        /* \"Campaign.sol\":920:950  require(msg.sender == manager) */\n      tag_84\n      jumpi\n        /* \"--CODEGEN--\":12:13   */\n      0x00\n        /* \"--CODEGEN--\":9:10   */\n      dup1\n        /* \"--CODEGEN--\":2:14   */\n      revert\n        /* \"Campaign.sol\":920:950  require(msg.sender == manager) */\n    tag_84:\n        /* \"Campaign.sol\":1587:1608  address(this).balance */\n      selfbalance\n        /* \"Campaign.sol\":1578:1583  value */\n      dup3\n        /* \"Campaign.sol\":1578:1608  value <= address(this).balance */\n      gt\n      iszero\n        /* \"Campaign.sol\":1570:1609  require(value <= address(this).balance) */\n      tag_86\n      jumpi\n        /* \"--CODEGEN--\":12:13   */\n      0x00\n        /* \"--CODEGEN--\":9:10   */\n      dup1\n        /* \"--CODEGEN--\":2:14   */\n      revert\n        /* \"Campaign.sol\":1570:1609  require(value <= address(this).balance) */\n    tag_86:\n        /* \"Campaign.sol\":1620:1645  Request memory newRequest */\n      tag_87\n      tag_88\n      jump\t// in\n    tag_87:\n        /* \"Campaign.sol\":1648:1830  Request({\r... */\n      mload(0x40)\n      dup1\n      0xa0\n      add\n      0x40\n      mstore\n      dup1\n        /* \"Campaign.sol\":1684:1695  description */\n      dup6\n        /* \"Campaign.sol\":1648:1830  Request({\r... */\n      dup2\n      mstore\n      0x20\n      add\n        /* \"Campaign.sol\":1717:1722  value */\n      dup5\n        /* \"Campaign.sol\":1648:1830  Request({\r... */\n      dup2\n      mstore\n      0x20\n      add\n        /* \"Campaign.sol\":1748:1757  recipient */\n      dup4\n        /* \"Campaign.sol\":1648:1830  Request({\r... */\n      0xffffffffffffffffffffffffffffffffffffffff\n      and\n      dup2\n      mstore\n      0x20\n      add\n        /* \"Campaign.sol\":1782:1787  false */\n      0x00\n        /* \"Campaign.sol\":1648:1830  Request({\r... */\n      iszero\n      iszero\n      dup2\n      mstore\n      0x20\n      add\n        /* \"Campaign.sol\":1817:1818  0 */\n      0x00\n        /* \"Campaign.sol\":1648:1830  Request({\r... */\n      dup2\n      mstore\n      pop\n        /* \"Campaign.sol\":1620:1830  Request memory newRequest = Request({\r... */\n      swap1\n      pop\n        /* \"Campaign.sol\":1843:1851  requests */\n      0x04\n        /* \"Campaign.sol\":1857:1867  newRequest */\n      dup2\n        /* \"Campaign.sol\":1843:1868  requests.push(newRequest) */\n      swap1\n      dup1\n        /* \"--CODEGEN--\":39:40   */\n      0x01\n        /* \"--CODEGEN--\":33:36   */\n      dup2\n        /* \"--CODEGEN--\":27:37   */\n      sload\n        /* \"--CODEGEN--\":23:41   */\n      add\n        /* \"--CODEGEN--\":57:67   */\n      dup1\n        /* \"--CODEGEN--\":52:55   */\n      dup3\n        /* \"--CODEGEN--\":45:68   */\n      sstore\n        /* \"--CODEGEN--\":79:89   */\n      dup1\n        /* \"--CODEGEN--\":72:89   */\n      swap2\n      pop\n        /* \"--CODEGEN--\":0:93   */\n      pop\n        /* \"Campaign.sol\":1843:1868  requests.push(newRequest) */\n      0x01\n      swap1\n      sub\n      swap1\n      0x00\n      mstore\n      keccak256(0x00, 0x20)\n      swap1\n      0x05\n      mul\n      add\n      0x00\n      swap1\n      swap2\n      swap1\n      swap2\n      swap1\n      swap2\n      pop\n      0x00\n      dup3\n      add\n      mload\n      dup2\n      0x00\n      add\n      swap1\n      dup1\n      mload\n      swap1\n      0x20\n      add\n      swap1\n      tag_90\n      swap3\n      swap2\n      swap1\n      tag_91\n      jump\t// in\n    tag_90:\n      pop\n      0x20\n      dup3\n      add\n      mload\n      dup2\n      0x01\n      add\n      sstore\n      0x40\n      dup3\n      add\n      mload\n      dup2\n      0x02\n      add\n      exp(0x0100, 0x00)\n      dup2\n      sload\n      dup2\n      0xffffffffffffffffffffffffffffffffffffffff\n      mul\n      not\n      and\n      swap1\n      dup4\n      0xffffffffffffffffffffffffffffffffffffffff\n      and\n      mul\n      or\n      swap1\n      sstore\n      pop\n      0x60\n      dup3\n      add\n      mload\n      dup2\n      0x02\n      add\n      exp(0x0100, 0x14)\n      dup2\n      sload\n      dup2\n      0xff\n      mul\n      not\n      and\n      swap1\n      dup4\n      iszero\n      iszero\n      mul\n      or\n      swap1\n      sstore\n      pop\n      0x80\n      dup3\n      add\n      mload\n      dup2\n      0x03\n      add\n      sstore\n      pop\n      pop\n        /* \"Campaign.sol\":961:962  _ */\n      pop\n        /* \"Campaign.sol\":1381:1876  function createRequest(string memory description, uint value, address payable recipient) public restricted {\r... */\n      pop\n      pop\n      pop\n      jump\t// out\n        /* \"Campaign.sol\":732:763  uint public minimumContribution */\n    tag_51:\n      sload(0x01)\n      dup2\n      jump\t// out\n        /* \"Campaign.sol\":1108:1373  function contribute() public payable {\r... */\n    tag_53:\n        /* \"Campaign.sol\":1176:1195  minimumContribution */\n      sload(0x01)\n        /* \"Campaign.sol\":1164:1173  msg.value */\n      callvalue\n        /* \"Campaign.sol\":1164:1195  msg.value > minimumContribution */\n      gt\n        /* \"Campaign.sol\":1156:1196  require(msg.value > minimumContribution) */\n      tag_93\n      jumpi\n        /* \"--CODEGEN--\":12:13   */\n      0x00\n        /* \"--CODEGEN--\":9:10   */\n      dup1\n        /* \"--CODEGEN--\":2:14   */\n      revert\n        /* \"Campaign.sol\":1156:1196  require(msg.value > minimumContribution) */\n    tag_93:\n        /* \"Campaign.sol\":1262:1271  approvers */\n      0x02\n        /* \"Campaign.sol\":1262:1283  approvers[msg.sender] */\n      0x00\n        /* \"Campaign.sol\":1272:1282  msg.sender */\n      caller\n        /* \"Campaign.sol\":1262:1283  approvers[msg.sender] */\n      0xffffffffffffffffffffffffffffffffffffffff\n      and\n      0xffffffffffffffffffffffffffffffffffffffff\n      and\n      dup2\n      mstore\n      0x20\n      add\n      swap1\n      dup2\n      mstore\n      0x20\n      add\n      0x00\n      keccak256\n      0x00\n      swap1\n      sload\n      swap1\n      0x0100\n      exp\n      swap1\n      div\n      0xff\n      and\n        /* \"Campaign.sol\":1258:1327  if(!approvers[msg.sender]) {\r... */\n      tag_94\n      jumpi\n        /* \"Campaign.sol\":1298:1312  approversCount */\n      0x03\n      0x00\n        /* \"Campaign.sol\":1298:1315  approversCount ++ */\n      dup2\n      sload\n      dup1\n      swap3\n      swap2\n      swap1\n      0x01\n      add\n      swap2\n      swap1\n      pop\n      sstore\n      pop\n        /* \"Campaign.sol\":1258:1327  if(!approvers[msg.sender]) {\r... */\n    tag_94:\n        /* \"Campaign.sol\":1361:1365  true */\n      0x01\n        /* \"Campaign.sol\":1337:1346  approvers */\n      0x02\n        /* \"Campaign.sol\":1337:1358  approvers[msg.sender] */\n      0x00\n        /* \"Campaign.sol\":1347:1357  msg.sender */\n      caller\n        /* \"Campaign.sol\":1337:1358  approvers[msg.sender] */\n      0xffffffffffffffffffffffffffffffffffffffff\n      and\n      0xffffffffffffffffffffffffffffffffffffffff\n      and\n      dup2\n      mstore\n      0x20\n      add\n      swap1\n      dup2\n      mstore\n      0x20\n      add\n      0x00\n      keccak256\n      0x00\n        /* \"Campaign.sol\":1337:1365  approvers[msg.sender] = true */\n      0x0100\n      exp\n      dup2\n      sload\n      dup2\n      0xff\n      mul\n      not\n      and\n      swap1\n      dup4\n      iszero\n      iszero\n      mul\n      or\n      swap1\n      sstore\n      pop\n        /* \"Campaign.sol\":1108:1373  function contribute() public payable {\r... */\n      jump\t// out\n        /* \"Campaign.sol\":1884:2338  function approveRequest(uint index) public {\r... */\n    tag_57:\n        /* \"Campaign.sol\":2029:2038  approvers */\n      0x02\n        /* \"Campaign.sol\":2029:2050  approvers[msg.sender] */\n      0x00\n        /* \"Campaign.sol\":2039:2049  msg.sender */\n      caller\n        /* \"Campaign.sol\":2029:2050  approvers[msg.sender] */\n      0xffffffffffffffffffffffffffffffffffffffff\n      and\n      0xffffffffffffffffffffffffffffffffffffffff\n      and\n      dup2\n      mstore\n      0x20\n      add\n      swap1\n      dup2\n      mstore\n      0x20\n      add\n      0x00\n      keccak256\n      0x00\n      swap1\n      sload\n      swap1\n      0x0100\n      exp\n      swap1\n      div\n      0xff\n      and\n        /* \"Campaign.sol\":2021:2051  require(approvers[msg.sender]) */\n      tag_96\n      jumpi\n        /* \"--CODEGEN--\":12:13   */\n      0x00\n        /* \"--CODEGEN--\":9:10   */\n      dup1\n        /* \"--CODEGEN--\":2:14   */\n      revert\n        /* \"Campaign.sol\":2021:2051  require(approvers[msg.sender]) */\n    tag_96:\n        /* \"Campaign.sol\":2071:2079  requests */\n      0x04\n        /* \"Campaign.sol\":2080:2085  index */\n      dup2\n        /* \"Campaign.sol\":2071:2086  requests[index] */\n      dup2\n      sload\n      dup2\n      lt\n      tag_97\n      jumpi\n      invalid\n    tag_97:\n      swap1\n      0x00\n      mstore\n      keccak256(0x00, 0x20)\n      swap1\n      0x05\n      mul\n      add\n        /* \"Campaign.sol\":2071:2096  requests[index].approvals */\n      0x04\n      add\n        /* \"Campaign.sol\":2071:2108  requests[index].approvals[msg.sender] */\n      0x00\n        /* \"Campaign.sol\":2097:2107  msg.sender */\n      caller\n        /* \"Campaign.sol\":2071:2108  requests[index].approvals[msg.sender] */\n      0xffffffffffffffffffffffffffffffffffffffff\n      and\n      0xffffffffffffffffffffffffffffffffffffffff\n      and\n      dup2\n      mstore\n      0x20\n      add\n      swap1\n      dup2\n      mstore\n      0x20\n      add\n      0x00\n      keccak256\n      0x00\n      swap1\n      sload\n      swap1\n      0x0100\n      exp\n      swap1\n      div\n      0xff\n      and\n        /* \"Campaign.sol\":2070:2108  !requests[index].approvals[msg.sender] */\n      iszero\n        /* \"Campaign.sol\":2062:2109  require(!requests[index].approvals[msg.sender]) */\n      tag_99\n      jumpi\n        /* \"--CODEGEN--\":12:13   */\n      0x00\n        /* \"--CODEGEN--\":9:10   */\n      dup1\n        /* \"--CODEGEN--\":2:14   */\n      revert\n        /* \"Campaign.sol\":2062:2109  require(!requests[index].approvals[msg.sender]) */\n    tag_99:\n        /* \"Campaign.sol\":2284:2288  true */\n      0x01\n        /* \"Campaign.sol\":2244:2252  requests */\n      0x04\n        /* \"Campaign.sol\":2253:2258  index */\n      dup3\n        /* \"Campaign.sol\":2244:2259  requests[index] */\n      dup2\n      sload\n      dup2\n      lt\n      tag_100\n      jumpi\n      invalid\n    tag_100:\n      swap1\n      0x00\n      mstore\n      keccak256(0x00, 0x20)\n      swap1\n      0x05\n      mul\n      add\n        /* \"Campaign.sol\":2244:2269  requests[index].approvals */\n      0x04\n      add\n        /* \"Campaign.sol\":2244:2281  requests[index].approvals[msg.sender] */\n      0x00\n        /* \"Campaign.sol\":2270:2280  msg.sender */\n      caller\n        /* \"Campaign.sol\":2244:2281  requests[index].approvals[msg.sender] */\n      0xffffffffffffffffffffffffffffffffffffffff\n      and\n      0xffffffffffffffffffffffffffffffffffffffff\n      and\n      dup2\n      mstore\n      0x20\n      add\n      swap1\n      dup2\n      mstore\n      0x20\n      add\n      0x00\n      keccak256\n      0x00\n        /* \"Campaign.sol\":2244:2288  requests[index].approvals[msg.sender] = true */\n      0x0100\n      exp\n      dup2\n      sload\n      dup2\n      0xff\n      mul\n      not\n      and\n      swap1\n      dup4\n      iszero\n      iszero\n      mul\n      or\n      swap1\n      sstore\n      pop\n        /* \"Campaign.sol\":2299:2307  requests */\n      0x04\n        /* \"Campaign.sol\":2308:2313  index */\n      dup2\n        /* \"Campaign.sol\":2299:2314  requests[index] */\n      dup2\n      sload\n      dup2\n      lt\n      tag_102\n      jumpi\n      invalid\n    tag_102:\n      swap1\n      0x00\n      mstore\n      keccak256(0x00, 0x20)\n      swap1\n      0x05\n      mul\n      add\n        /* \"Campaign.sol\":2299:2328  requests[index].approvalCount */\n      0x03\n      add\n      0x00\n        /* \"Campaign.sol\":2299:2330  requests[index].approvalCount++ */\n      dup2\n      sload\n      dup1\n      swap3\n      swap2\n      swap1\n      0x01\n      add\n      swap2\n      swap1\n      pop\n      sstore\n      pop\n        /* \"Campaign.sol\":1884:2338  function approveRequest(uint index) public {\r... */\n      pop\n      jump\t// out\n        /* \"Campaign.sol\":453:3196  contract Campaign {\r... */\n    tag_88:\n      mload(0x40)\n      dup1\n      0xa0\n      add\n      0x40\n      mstore\n      dup1\n      0x60\n      dup2\n      mstore\n      0x20\n      add\n      0x00\n      dup2\n      mstore\n      0x20\n      add\n      and(0xffffffffffffffffffffffffffffffffffffffff, 0x00)\n      dup2\n      mstore\n      0x20\n      add\n      iszero(iszero(0x00))\n      dup2\n      mstore\n      0x20\n      add\n      0x00\n      dup2\n      mstore\n      pop\n      swap1\n      jump\t// out\n    tag_91:\n      dup3\n      dup1\n      sload\n      0x01\n      dup2\n      0x01\n      and\n      iszero\n      0x0100\n      mul\n      sub\n      and\n      0x02\n      swap1\n      div\n      swap1\n      0x00\n      mstore\n      keccak256(0x00, 0x20)\n      swap1\n      0x1f\n      add\n      0x20\n      swap1\n      div\n      dup2\n      add\n      swap3\n      dup3\n      0x1f\n      lt\n      tag_105\n      jumpi\n      dup1\n      mload\n      not(0xff)\n      and\n      dup4\n      dup1\n      add\n      or\n      dup6\n      sstore\n      jump(tag_104)\n    tag_105:\n      dup3\n      dup1\n      add\n      0x01\n      add\n      dup6\n      sstore\n      dup3\n      iszero\n      tag_104\n      jumpi\n      swap2\n      dup3\n      add\n    tag_106:\n      dup3\n      dup2\n      gt\n      iszero\n      tag_107\n      jumpi\n      dup3\n      mload\n      dup3\n      sstore\n      swap2\n      0x20\n      add\n      swap2\n      swap1\n      0x01\n      add\n      swap1\n      jump(tag_106)\n    tag_107:\n    tag_104:\n      pop\n      swap1\n      pop\n      tag_108\n      swap2\n      swap1\n      tag_109\n      jump\t// in\n    tag_108:\n      pop\n      swap1\n      jump\t// out\n    tag_109:\n      tag_110\n      swap2\n      swap1\n    tag_111:\n      dup1\n      dup3\n      gt\n      iszero\n      tag_112\n      jumpi\n      0x00\n      dup2\n      0x00\n      swap1\n      sstore\n      pop\n      0x01\n      add\n      jump(tag_111)\n    tag_112:\n      pop\n      swap1\n      jump\n    tag_110:\n      swap1\n      jump\t// out\n\n    auxdata: 0xa2646970667358221220170ee27d42f7e87820b31b79facdadf054c698ad46e8d7e0b788d4949fd0f6e664736f6c63430006060033\n}\n",
    "bytecode": {
      "linkReferences": {},
      "object": "608060405234801561001057600080fd5b50604051610d99380380610d998339818101604052604081101561003357600080fd5b810190808051906020019092919080519060200190929190505050806000806101000a81548173ffffffffffffffffffffffffffffffffffffffff021916908373ffffffffffffffffffffffffffffffffffffffff160217905550816001819055505050610cf3806100a66000396000f3fe60806040526004361061009c5760003560e01c806381d12c581161006457806381d12c581461023a57806382fde0931461033a5780638a9cfd5514610365578063937e09b114610457578063d7bb99ba14610482578063d7d1bbdb1461048c5761009c565b806303441006146100a15780630a144391146100dc5780633fad1834146101455780634051ddac14610170578063481c6a75146101e3575b600080fd5b3480156100ad57600080fd5b506100da600480360360208110156100c457600080fd5b81019080803590602001909291905050506104c7565b005b3480156100e857600080fd5b5061012b600480360360208110156100ff57600080fd5b81019080803573ffffffffffffffffffffffffffffffffffffffff169060200190929190505050610669565b604051808215151515815260200191505060405180910390f35b34801561015157600080fd5b5061015a610689565b6040518082815260200191505060405180910390f35b34801561017c57600080fd5b50610185610696565b604051808681526020018581526020018481526020018381526020018273ffffffffffffffffffffffffffffffffffffffff1673ffffffffffffffffffffffffffffffffffffffff1681526020019550505050505060405180910390f35b3480156101ef57600080fd5b506101f86106e1565b604051808273ffffffffffffffffffffffffffffffffffffffff1673ffffffffffffffffffffffffffffffffffffffff16815260200191505060405180910390f35b34801561024657600080fd5b506102736004803603602081101561025d57600080fd5b8101908080359060200190929190505050610706565b60405180806020018681526020018573ffffffffffffffffffffffffffffffffffffffff1673ffffffffffffffffffffffffffffffffffffffff16815260200184151515158152602001838152602001828103825287818151815260200191508051906020019080838360005b838110156102fb5780820151818401526020810190506102e0565b50505050905090810190601f1680156103285780820380516001836020036101000a031916815260200191505b50965050505050505060405180910390f35b34801561034657600080fd5b5061034f61080e565b6040518082815260200191505060405180910390f35b34801561037157600080fd5b506104556004803603606081101561038857600080fd5b81019080803590602001906401000000008111156103a557600080fd5b8201836020820111156103b757600080fd5b803590602001918460018302840111640100000000831117156103d957600080fd5b91908080601f016020809104026020016040519081016040528093929190818152602001838380828437600081840152601f19601f82011690508083019250505050505050919291929080359060200190929190803573ffffffffffffffffffffffffffffffffffffffff169060200190929190505050610814565b005b34801561046357600080fd5b5061046c610991565b6040518082815260200191505060405180910390f35b61048a610997565b005b34801561049857600080fd5b506104c5600480360360208110156104af57600080fd5b8101908080359060200190929190505050610a63565b005b6000809054906101000a900473ffffffffffffffffffffffffffffffffffffffff1673ffffffffffffffffffffffffffffffffffffffff163373ffffffffffffffffffffffffffffffffffffffff161461052057600080fd5b6004818154811061052d57fe5b906000526020600020906005020160020160149054906101000a900460ff161561055657600080fd5b60026003548161056257fe5b046004828154811061057057fe5b9060005260206000209060050201600301541161058c57600080fd5b6004818154811061059957fe5b906000526020600020906005020160020160009054906101000a900473ffffffffffffffffffffffffffffffffffffffff1673ffffffffffffffffffffffffffffffffffffffff166108fc600483815481106105f157fe5b9060005260206000209060050201600101549081150290604051600060405180830381858888f1935050505015801561062e573d6000803e3d6000fd5b5060016004828154811061063e57fe5b906000526020600020906005020160020160146101000a81548160ff02191690831515021790555050565b60026020528060005260406000206000915054906101000a900460ff1681565b6000600480549050905090565b6000806000806000600154476004805490506003546000809054906101000a900473ffffffffffffffffffffffffffffffffffffffff16809050945094509450945094509091929394565b6000809054906101000a900473ffffffffffffffffffffffffffffffffffffffff1681565b6004818154811061071357fe5b9060005260206000209060050201600091509050806000018054600181600116156101000203166002900480601f0160208091040260200160405190810160405280929190818152602001828054600181600116156101000203166002900480156107bf5780601f10610794576101008083540402835291602001916107bf565b820191906000526020600020905b8154815290600101906020018083116107a257829003601f168201915b5050505050908060010154908060020160009054906101000a900473ffffffffffffffffffffffffffffffffffffffff16908060020160149054906101000a900460ff16908060030154905085565b60035481565b6000809054906101000a900473ffffffffffffffffffffffffffffffffffffffff1673ffffffffffffffffffffffffffffffffffffffff163373ffffffffffffffffffffffffffffffffffffffff161461086d57600080fd5b4782111561087a57600080fd5b610882610bd1565b6040518060a001604052808581526020018481526020018373ffffffffffffffffffffffffffffffffffffffff168152602001600015158152602001600081525090506004819080600181540180825580915050600190039060005260206000209060050201600090919091909150600082015181600001908051906020019061090d929190610c18565b506020820151816001015560408201518160020160006101000a81548173ffffffffffffffffffffffffffffffffffffffff021916908373ffffffffffffffffffffffffffffffffffffffff16021790555060608201518160020160146101000a81548160ff02191690831515021790555060808201518160030155505050505050565b60015481565b60015434116109a557600080fd5b600260003373ffffffffffffffffffffffffffffffffffffffff1673ffffffffffffffffffffffffffffffffffffffff16815260200190815260200160002060009054906101000a900460ff16610a09576003600081548092919060010191905055505b6001600260003373ffffffffffffffffffffffffffffffffffffffff1673ffffffffffffffffffffffffffffffffffffffff16815260200190815260200160002060006101000a81548160ff021916908315150217905550565b600260003373ffffffffffffffffffffffffffffffffffffffff1673ffffffffffffffffffffffffffffffffffffffff16815260200190815260200160002060009054906101000a900460ff16610ab957600080fd5b60048181548110610ac657fe5b906000526020600020906005020160040160003373ffffffffffffffffffffffffffffffffffffffff1673ffffffffffffffffffffffffffffffffffffffff16815260200190815260200160002060009054906101000a900460ff1615610b2c57600080fd5b600160048281548110610b3b57fe5b906000526020600020906005020160040160003373ffffffffffffffffffffffffffffffffffffffff1673ffffffffffffffffffffffffffffffffffffffff16815260200190815260200160002060006101000a81548160ff02191690831515021790555060048181548110610bad57fe5b90600052602060002090600502016003016000815480929190600101919050555050565b6040518060a001604052806060815260200160008152602001600073ffffffffffffffffffffffffffffffffffffffff168152602001600015158152602001600081525090565b828054600181600116156101000203166002900490600052602060002090601f016020900481019282601f10610c5957805160ff1916838001178555610c87565b82800160010185558215610c87579182015b82811115610c86578251825591602001919060010190610c6b565b5b509050610c949190610c98565b5090565b610cba91905b80821115610cb6576000816000905550600101610c9e565b5090565b9056fea2646970667358221220170ee27d42f7e87820b31b79facdadf054c698ad46e8d7e0b788d4949fd0f6e664736f6c63430006060033",
      "opcodes": "PUSH1 0x80 PUSH1 0x40 MSTORE CALLVALUE DUP1 ISZERO PUSH2 0x10 JUMPI PUSH1 0x0 DUP1 REVERT JUMPDEST POP PUSH1 0x40 MLOAD PUSH2 0xD99 CODESIZE SUB DUP1 PUSH2 0xD99 DUP4 CODECOPY DUP2 DUP2 ADD PUSH1 0x40 MSTORE PUSH1 0x40 DUP2 LT ISZERO PUSH2 0x33 JUMPI PUSH1 0x0 DUP1 REVERT JUMPDEST DUP2 ADD SWAP1 DUP1 DUP1 MLOAD SWAP1 PUSH1 0x20 ADD SWAP1 SWAP3 SWAP2 SWAP1 DUP1 MLOAD SWAP1 PUSH1 0x20 ADD SWAP1 SWAP3 SWAP2 SWAP1 POP POP POP DUP1 PUSH1 0x0 DUP1 PUSH2 0x100 EXP DUP2 SLOAD DUP2 PUSH20 0xFFFFFFFFFFFFFFFFFFFFFFFFFFFFFFFFFFFFFFFF MUL NOT AND SWAP1 DUP4 PUSH20 0xFFFFFFFFFFFFFFFFFFFFFFFFFFFFFFFFFFFFFFFF AND MUL OR SWAP1 SSTORE POP DUP2 PUSH1 0x1 DUP2 SWAP1 SSTORE POP POP POP PUSH2 0xCF3 DUP1 PUSH2 0xA6 PUSH1 0x0 CODECOPY PUSH1 0x0 RETURN INVALID PUSH1 0x80 PUSH1 0x40 MSTORE PUSH1 0x4 CALLDATASIZE LT PUSH2 0x9C JUMPI PUSH1 0x0 CALLDATALOAD PUSH1 0xE0 SHR DUP1 PUSH4 0x81D12C58 GT PUSH2 0x64 JUMPI DUP1 PUSH4 0x81D12C58 EQ PUSH2 0x23A JUMPI DUP1 PUSH4 0x82FDE093 EQ PUSH2 0x33A JUMPI DUP1 PUSH4 0x8A9CFD55 EQ PUSH2 0x365 JUMPI DUP1 PUSH4 0x937E09B1 EQ PUSH2 0x457 JUMPI DUP1 PUSH4 0xD7BB99BA EQ PUSH2 0x482 JUMPI DUP1 PUSH4 0xD7D1BBDB EQ PUSH2 0x48C JUMPI PUSH2 0x9C JUMP JUMPDEST DUP1 PUSH4 0x3441006 EQ PUSH2 0xA1 JUMPI DUP1 PUSH4 0xA144391 EQ PUSH2 0xDC JUMPI DUP1 PUSH4 0x3FAD1834 EQ PUSH2 0x145 JUMPI DUP1 PUSH4 0x4051DDAC EQ PUSH2 0x170 JUMPI DUP1 PUSH4 0x481C6A75 EQ PUSH2 0x1E3 JUMPI JUMPDEST PUSH1 0x0 DUP1 REVERT JUMPDEST CALLVALUE DUP1 ISZERO PUSH2 0xAD JUMPI PUSH1 0x0 DUP1 REVERT JUMPDEST POP PUSH2 0xDA PUSH1 0x4 DUP1 CALLDATASIZE SUB PUSH1 0x20 DUP2 LT ISZERO PUSH2 0xC4 JUMPI PUSH1 0x0 DUP1 REVERT JUMPDEST DUP2 ADD SWAP1 DUP1 DUP1 CALLDATALOAD SWAP1 PUSH1 0x20 ADD SWAP1 SWAP3 SWAP2 SWAP1 POP POP POP PUSH2 0x4C7 JUMP JUMPDEST STOP JUMPDEST CALLVALUE DUP1 ISZERO PUSH2 0xE8 JUMPI PUSH1 0x0 DUP1 REVERT JUMPDEST POP PUSH2 0x12B PUSH1 0x4 DUP1 CALLDATASIZE SUB PUSH1 0x20 DUP2 LT ISZERO PUSH2 0xFF JUMPI PUSH1 0x0 DUP1 REVERT JUMPDEST DUP2 ADD SWAP1 DUP1 DUP1 CALLDATALOAD PUSH20 0xFFFFFFFFFFFFFFFFFFFFFFFFFFFFFFFFFFFFFFFF AND SWAP1 PUSH1 0x20 ADD SWAP1 SWAP3 SWAP2 SWAP1 POP POP POP PUSH2 0x669 JUMP JUMPDEST PUSH1 0x40 MLOAD DUP1 DUP3 ISZERO ISZERO ISZERO ISZERO DUP2 MSTORE PUSH1 0x20 ADD SWAP2 POP POP PUSH1 0x40 MLOAD DUP1 SWAP2 SUB SWAP1 RETURN JUMPDEST CALLVALUE DUP1 ISZERO PUSH2 0x151 JUMPI PUSH1 0x0 DUP1 REVERT JUMPDEST POP PUSH2 0x15A PUSH2 0x689 JUMP JUMPDEST PUSH1 0x40 MLOAD DUP1 DUP3 DUP2 MSTORE PUSH1 0x20 ADD SWAP2 POP POP PUSH1 0x40 MLOAD DUP1 SWAP2 SUB SWAP1 RETURN JUMPDEST CALLVALUE DUP1 ISZERO PUSH2 0x17C JUMPI PUSH1 0x0 DUP1 REVERT JUMPDEST POP PUSH2 0x185 PUSH2 0x696 JUMP JUMPDEST PUSH1 0x40 MLOAD DUP1 DUP7 DUP2 MSTORE PUSH1 0x20 ADD DUP6 DUP2 MSTORE PUSH1 0x20 ADD DUP5 DUP2 MSTORE PUSH1 0x20 ADD DUP4 DUP2 MSTORE PUSH1 0x20 ADD DUP3 PUSH20 0xFFFFFFFFFFFFFFFFFFFFFFFFFFFFFFFFFFFFFFFF AND PUSH20 0xFFFFFFFFFFFFFFFFFFFFFFFFFFFFFFFFFFFFFFFF AND DUP2 MSTORE PUSH1 0x20 ADD SWAP6 POP POP POP POP POP POP PUSH1 0x40 MLOAD DUP1 SWAP2 SUB SWAP1 RETURN JUMPDEST CALLVALUE DUP1 ISZERO PUSH2 0x1EF JUMPI PUSH1 0x0 DUP1 REVERT JUMPDEST POP PUSH2 0x1F8 PUSH2 0x6E1 JUMP JUMPDEST PUSH1 0x40 MLOAD DUP1 DUP3 PUSH20 0xFFFFFFFFFFFFFFFFFFFFFFFFFFFFFFFFFFFFFFFF AND PUSH20 0xFFFFFFFFFFFFFFFFFFFFFFFFFFFFFFFFFFFFFFFF AND DUP2 MSTORE PUSH1 0x20 ADD SWAP2 POP POP PUSH1 0x40 MLOAD DUP1 SWAP2 SUB SWAP1 RETURN JUMPDEST CALLVALUE DUP1 ISZERO PUSH2 0x246 JUMPI PUSH1 0x0 DUP1 REVERT JUMPDEST POP PUSH2 0x273 PUSH1 0x4 DUP1 CALLDATASIZE SUB PUSH1 0x20 DUP2 LT ISZERO PUSH2 0x25D JUMPI PUSH1 0x0 DUP1 REVERT JUMPDEST DUP2 ADD SWAP1 DUP1 DUP1 CALLDATALOAD SWAP1 PUSH1 0x20 ADD SWAP1 SWAP3 SWAP2 SWAP1 POP POP POP PUSH2 0x706 JUMP JUMPDEST PUSH1 0x40 MLOAD DUP1 DUP1 PUSH1 0x20 ADD DUP7 DUP2 MSTORE PUSH1 0x20 ADD DUP6 PUSH20 0xFFFFFFFFFFFFFFFFFFFFFFFFFFFFFFFFFFFFFFFF AND PUSH20 0xFFFFFFFFFFFFFFFFFFFFFFFFFFFFFFFFFFFFFFFF AND DUP2 MSTORE PUSH1 0x20 ADD DUP5 ISZERO ISZERO ISZERO ISZERO DUP2 MSTORE PUSH1 0x20 ADD DUP4 DUP2 MSTORE PUSH1 0x20 ADD DUP3 DUP2 SUB DUP3 MSTORE DUP8 DUP2 DUP2 MLOAD DUP2 MSTORE PUSH1 0x20 ADD SWAP2 POP DUP1 MLOAD SWAP1 PUSH1 0x20 ADD SWAP1 DUP1 DUP4 DUP4 PUSH1 0x0 JUMPDEST DUP4 DUP2 LT ISZERO PUSH2 0x2FB JUMPI DUP1 DUP3 ADD MLOAD DUP2 DUP5 ADD MSTORE PUSH1 0x20 DUP2 ADD SWAP1 POP PUSH2 0x2E0 JUMP JUMPDEST POP POP POP POP SWAP1 POP SWAP1 DUP2 ADD SWAP1 PUSH1 0x1F AND DUP1 ISZERO PUSH2 0x328 JUMPI DUP1 DUP3 SUB DUP1 MLOAD PUSH1 0x1 DUP4 PUSH1 0x20 SUB PUSH2 0x100 EXP SUB NOT AND DUP2 MSTORE PUSH1 0x20 ADD SWAP2 POP JUMPDEST POP SWAP7 POP POP POP POP POP POP POP PUSH1 0x40 MLOAD DUP1 SWAP2 SUB SWAP1 RETURN JUMPDEST CALLVALUE DUP1 ISZERO PUSH2 0x346 JUMPI PUSH1 0x0 DUP1 REVERT JUMPDEST POP PUSH2 0x34F PUSH2 0x80E JUMP JUMPDEST PUSH1 0x40 MLOAD DUP1 DUP3 DUP2 MSTORE PUSH1 0x20 ADD SWAP2 POP POP PUSH1 0x40 MLOAD DUP1 SWAP2 SUB SWAP1 RETURN JUMPDEST CALLVALUE DUP1 ISZERO PUSH2 0x371 JUMPI PUSH1 0x0 DUP1 REVERT JUMPDEST POP PUSH2 0x455 PUSH1 0x4 DUP1 CALLDATASIZE SUB PUSH1 0x60 DUP2 LT ISZERO PUSH2 0x388 JUMPI PUSH1 0x0 DUP1 REVERT JUMPDEST DUP2 ADD SWAP1 DUP1 DUP1 CALLDATALOAD SWAP1 PUSH1 0x20 ADD SWAP1 PUSH5 0x100000000 DUP2 GT ISZERO PUSH2 0x3A5 JUMPI PUSH1 0x0 DUP1 REVERT JUMPDEST DUP3 ADD DUP4 PUSH1 0x20 DUP3 ADD GT ISZERO PUSH2 0x3B7 JUMPI PUSH1 0x0 DUP1 REVERT JUMPDEST DUP1 CALLDATALOAD SWAP1 PUSH1 0x20 ADD SWAP2 DUP5 PUSH1 0x1 DUP4 MUL DUP5 ADD GT PUSH5 0x100000000 DUP4 GT OR ISZERO PUSH2 0x3D9 JUMPI PUSH1 0x0 DUP1 REVERT JUMPDEST SWAP2 SWAP1 DUP1 DUP1 PUSH1 0x1F ADD PUSH1 0x20 DUP1 SWAP2 DIV MUL PUSH1 0x20 ADD PUSH1 0x40 MLOAD SWAP1 DUP2 ADD PUSH1 0x40 MSTORE DUP1 SWAP4 SWAP3 SWAP2 SWAP1 DUP2 DUP2 MSTORE PUSH1 0x20 ADD DUP4 DUP4 DUP1 DUP3 DUP5 CALLDATACOPY PUSH1 0x0 DUP2 DUP5 ADD MSTORE PUSH1 0x1F NOT PUSH1 0x1F DUP3 ADD AND SWAP1 POP DUP1 DUP4 ADD SWAP3 POP POP POP POP POP POP POP SWAP2 SWAP3 SWAP2 SWAP3 SWAP1 DUP1 CALLDATALOAD SWAP1 PUSH1 0x20 ADD SWAP1 SWAP3 SWAP2 SWAP1 DUP1 CALLDATALOAD PUSH20 0xFFFFFFFFFFFFFFFFFFFFFFFFFFFFFFFFFFFFFFFF AND SWAP1 PUSH1 0x20 ADD SWAP1 SWAP3 SWAP2 SWAP1 POP POP POP PUSH2 0x814 JUMP JUMPDEST STOP JUMPDEST CALLVALUE DUP1 ISZERO PUSH2 0x463 JUMPI PUSH1 0x0 DUP1 REVERT JUMPDEST POP PUSH2 0x46C PUSH2 0x991 JUMP JUMPDEST PUSH1 0x40 MLOAD DUP1 DUP3 DUP2 MSTORE PUSH1 0x20 ADD SWAP2 POP POP PUSH1 0x40 MLOAD DUP1 SWAP2 SUB SWAP1 RETURN JUMPDEST PUSH2 0x48A PUSH2 0x997 JUMP JUMPDEST STOP JUMPDEST CALLVALUE DUP1 ISZERO PUSH2 0x498 JUMPI PUSH1 0x0 DUP1 REVERT JUMPDEST POP PUSH2 0x4C5 PUSH1 0x4 DUP1 CALLDATASIZE SUB PUSH1 0x20 DUP2 LT ISZERO PUSH2 0x4AF JUMPI PUSH1 0x0 DUP1 REVERT JUMPDEST DUP2 ADD SWAP1 DUP1 DUP1 CALLDATALOAD SWAP1 PUSH1 0x20 ADD SWAP1 SWAP3 SWAP2 SWAP1 POP POP POP PUSH2 0xA63 JUMP JUMPDEST STOP JUMPDEST PUSH1 0x0 DUP1 SWAP1 SLOAD SWAP1 PUSH2 0x100 EXP SWAP1 DIV PUSH20 0xFFFFFFFFFFFFFFFFFFFFFFFFFFFFFFFFFFFFFFFF AND PUSH20 0xFFFFFFFFFFFFFFFFFFFFFFFFFFFFFFFFFFFFFFFF AND CALLER PUSH20 0xFFFFFFFFFFFFFFFFFFFFFFFFFFFFFFFFFFFFFFFF AND EQ PUSH2 0x520 JUMPI PUSH1 0x0 DUP1 REVERT JUMPDEST PUSH1 0x4 DUP2 DUP2 SLOAD DUP2 LT PUSH2 0x52D JUMPI INVALID JUMPDEST SWAP1 PUSH1 0x0 MSTORE PUSH1 0x20 PUSH1 0x0 KECCAK256 SWAP1 PUSH1 0x5 MUL ADD PUSH1 0x2 ADD PUSH1 0x14 SWAP1 SLOAD SWAP1 PUSH2 0x100 EXP SWAP1 DIV PUSH1 0xFF AND ISZERO PUSH2 0x556 JUMPI PUSH1 0x0 DUP1 REVERT JUMPDEST PUSH1 0x2 PUSH1 0x3 SLOAD DUP2 PUSH2 0x562 JUMPI INVALID JUMPDEST DIV PUSH1 0x4 DUP3 DUP2 SLOAD DUP2 LT PUSH2 0x570 JUMPI INVALID JUMPDEST SWAP1 PUSH1 0x0 MSTORE PUSH1 0x20 PUSH1 0x0 KECCAK256 SWAP1 PUSH1 0x5 MUL ADD PUSH1 0x3 ADD SLOAD GT PUSH2 0x58C JUMPI PUSH1 0x0 DUP1 REVERT JUMPDEST PUSH1 0x4 DUP2 DUP2 SLOAD DUP2 LT PUSH2 0x599 JUMPI INVALID JUMPDEST SWAP1 PUSH1 0x0 MSTORE PUSH1 0x20 PUSH1 0x0 KECCAK256 SWAP1 PUSH1 0x5 MUL ADD PUSH1 0x2 ADD PUSH1 0x0 SWAP1 SLOAD SWAP1 PUSH2 0x100 EXP SWAP1 DIV PUSH20 0xFFFFFFFFFFFFFFFFFFFFFFFFFFFFFFFFFFFFFFFF AND PUSH20 0xFFFFFFFFFFFFFFFFFFFFFFFFFFFFFFFFFFFFFFFF AND PUSH2 0x8FC PUSH1 0x4 DUP4 DUP2 SLOAD DUP2 LT PUSH2 0x5F1 JUMPI INVALID JUMPDEST SWAP1 PUSH1 0x0 MSTORE PUSH1 0x20 PUSH1 0x0 KECCAK256 SWAP1 PUSH1 0x5 MUL ADD PUSH1 0x1 ADD SLOAD SWAP1 DUP2 ISZERO MUL SWAP1 PUSH1 0x40 MLOAD PUSH1 0x0 PUSH1 0x40 MLOAD DUP1 DUP4 SUB DUP2 DUP6 DUP9 DUP9 CALL SWAP4 POP POP POP POP ISZERO DUP1 ISZERO PUSH2 0x62E JUMPI RETURNDATASIZE PUSH1 0x0 DUP1 RETURNDATACOPY RETURNDATASIZE PUSH1 0x0 REVERT JUMPDEST POP PUSH1 0x1 PUSH1 0x4 DUP3 DUP2 SLOAD DUP2 LT PUSH2 0x63E JUMPI INVALID JUMPDEST SWAP1 PUSH1 0x0 MSTORE PUSH1 0x20 PUSH1 0x0 KECCAK256 SWAP1 PUSH1 0x5 MUL ADD PUSH1 0x2 ADD PUSH1 0x14 PUSH2 0x100 EXP DUP2 SLOAD DUP2 PUSH1 0xFF MUL NOT AND SWAP1 DUP4 ISZERO ISZERO MUL OR SWAP1 SSTORE POP POP JUMP JUMPDEST PUSH1 0x2 PUSH1 0x20 MSTORE DUP1 PUSH1 0x0 MSTORE PUSH1 0x40 PUSH1 0x0 KECCAK256 PUSH1 0x0 SWAP2 POP SLOAD SWAP1 PUSH2 0x100 EXP SWAP1 DIV PUSH1 0xFF AND DUP2 JUMP JUMPDEST PUSH1 0x0 PUSH1 0x4 DUP1 SLOAD SWAP1 POP SWAP1 POP SWAP1 JUMP JUMPDEST PUSH1 0x0 DUP1 PUSH1 0x0 DUP1 PUSH1 0x0 PUSH1 0x1 SLOAD SELFBALANCE PUSH1 0x4 DUP1 SLOAD SWAP1 POP PUSH1 0x3 SLOAD PUSH1 0x0 DUP1 SWAP1 SLOAD SWAP1 PUSH2 0x100 EXP SWAP1 DIV PUSH20 0xFFFFFFFFFFFFFFFFFFFFFFFFFFFFFFFFFFFFFFFF AND DUP1 SWAP1 POP SWAP5 POP SWAP5 POP SWAP5 POP SWAP5 POP SWAP5 POP SWAP1 SWAP2 SWAP3 SWAP4 SWAP5 JUMP JUMPDEST PUSH1 0x0 DUP1 SWAP1 SLOAD SWAP1 PUSH2 0x100 EXP SWAP1 DIV PUSH20 0xFFFFFFFFFFFFFFFFFFFFFFFFFFFFFFFFFFFFFFFF AND DUP2 JUMP JUMPDEST PUSH1 0x4 DUP2 DUP2 SLOAD DUP2 LT PUSH2 0x713 JUMPI INVALID JUMPDEST SWAP1 PUSH1 0x0 MSTORE PUSH1 0x20 PUSH1 0x0 KECCAK256 SWAP1 PUSH1 0x5 MUL ADD PUSH1 0x0 SWAP2 POP SWAP1 POP DUP1 PUSH1 0x0 ADD DUP1 SLOAD PUSH1 0x1 DUP2 PUSH1 0x1 AND ISZERO PUSH2 0x100 MUL SUB AND PUSH1 0x2 SWAP1 DIV DUP1 PUSH1 0x1F ADD PUSH1 0x20 DUP1 SWAP2 DIV MUL PUSH1 0x20 ADD PUSH1 0x40 MLOAD SWAP1 DUP2 ADD PUSH1 0x40 MSTORE DUP1 SWAP3 SWAP2 SWAP1 DUP2 DUP2 MSTORE PUSH1 0x20 ADD DUP3 DUP1 SLOAD PUSH1 0x1 DUP2 PUSH1 0x1 AND ISZERO PUSH2 0x100 MUL SUB AND PUSH1 0x2 SWAP1 DIV DUP1 ISZERO PUSH2 0x7BF JUMPI DUP1 PUSH1 0x1F LT PUSH2 0x794 JUMPI PUSH2 0x100 DUP1 DUP4 SLOAD DIV MUL DUP4 MSTORE SWAP2 PUSH1 0x20 ADD SWAP2 PUSH2 0x7BF JUMP JUMPDEST DUP3 ADD SWAP2 SWAP1 PUSH1 0x0 MSTORE PUSH1 0x20 PUSH1 0x0 KECCAK256 SWAP1 JUMPDEST DUP2 SLOAD DUP2 MSTORE SWAP1 PUSH1 0x1 ADD SWAP1 PUSH1 0x20 ADD DUP1 DUP4 GT PUSH2 0x7A2 JUMPI DUP3 SWAP1 SUB PUSH1 0x1F AND DUP3 ADD SWAP2 JUMPDEST POP POP POP POP POP SWAP1 DUP1 PUSH1 0x1 ADD SLOAD SWAP1 DUP1 PUSH1 0x2 ADD PUSH1 0x0 SWAP1 SLOAD SWAP1 PUSH2 0x100 EXP SWAP1 DIV PUSH20 0xFFFFFFFFFFFFFFFFFFFFFFFFFFFFFFFFFFFFFFFF AND SWAP1 DUP1 PUSH1 0x2 ADD PUSH1 0x14 SWAP1 SLOAD SWAP1 PUSH2 0x100 EXP SWAP1 DIV PUSH1 0xFF AND SWAP1 DUP1 PUSH1 0x3 ADD SLOAD SWAP1 POP DUP6 JUMP JUMPDEST PUSH1 0x3 SLOAD DUP2 JUMP JUMPDEST PUSH1 0x0 DUP1 SWAP1 SLOAD SWAP1 PUSH2 0x100 EXP SWAP1 DIV PUSH20 0xFFFFFFFFFFFFFFFFFFFFFFFFFFFFFFFFFFFFFFFF AND PUSH20 0xFFFFFFFFFFFFFFFFFFFFFFFFFFFFFFFFFFFFFFFF AND CALLER PUSH20 0xFFFFFFFFFFFFFFFFFFFFFFFFFFFFFFFFFFFFFFFF AND EQ PUSH2 0x86D JUMPI PUSH1 0x0 DUP1 REVERT JUMPDEST SELFBALANCE DUP3 GT ISZERO PUSH2 0x87A JUMPI PUSH1 0x0 DUP1 REVERT JUMPDEST PUSH2 0x882 PUSH2 0xBD1 JUMP JUMPDEST PUSH1 0x40 MLOAD DUP1 PUSH1 0xA0 ADD PUSH1 0x40 MSTORE DUP1 DUP6 DUP2 MSTORE PUSH1 0x20 ADD DUP5 DUP2 MSTORE PUSH1 0x20 ADD DUP4 PUSH20 0xFFFFFFFFFFFFFFFFFFFFFFFFFFFFFFFFFFFFFFFF AND DUP2 MSTORE PUSH1 0x20 ADD PUSH1 0x0 ISZERO ISZERO DUP2 MSTORE PUSH1 0x20 ADD PUSH1 0x0 DUP2 MSTORE POP SWAP1 POP PUSH1 0x4 DUP2 SWAP1 DUP1 PUSH1 0x1 DUP2 SLOAD ADD DUP1 DUP3 SSTORE DUP1 SWAP2 POP POP PUSH1 0x1 SWAP1 SUB SWAP1 PUSH1 0x0 MSTORE PUSH1 0x20 PUSH1 0x0 KECCAK256 SWAP1 PUSH1 0x5 MUL ADD PUSH1 0x0 SWAP1 SWAP2 SWAP1 SWAP2 SWAP1 SWAP2 POP PUSH1 0x0 DUP3 ADD MLOAD DUP2 PUSH1 0x0 ADD SWAP1 DUP1 MLOAD SWAP1 PUSH1 0x20 ADD SWAP1 PUSH2 0x90D SWAP3 SWAP2 SWAP1 PUSH2 0xC18 JUMP JUMPDEST POP PUSH1 0x20 DUP3 ADD MLOAD DUP2 PUSH1 0x1 ADD SSTORE PUSH1 0x40 DUP3 ADD MLOAD DUP2 PUSH1 0x2 ADD PUSH1 0x0 PUSH2 0x100 EXP DUP2 SLOAD DUP2 PUSH20 0xFFFFFFFFFFFFFFFFFFFFFFFFFFFFFFFFFFFFFFFF MUL NOT AND SWAP1 DUP4 PUSH20 0xFFFFFFFFFFFFFFFFFFFFFFFFFFFFFFFFFFFFFFFF AND MUL OR SWAP1 SSTORE POP PUSH1 0x60 DUP3 ADD MLOAD DUP2 PUSH1 0x2 ADD PUSH1 0x14 PUSH2 0x100 EXP DUP2 SLOAD DUP2 PUSH1 0xFF MUL NOT AND SWAP1 DUP4 ISZERO ISZERO MUL OR SWAP1 SSTORE POP PUSH1 0x80 DUP3 ADD MLOAD DUP2 PUSH1 0x3 ADD SSTORE POP POP POP POP POP POP JUMP JUMPDEST PUSH1 0x1 SLOAD DUP2 JUMP JUMPDEST PUSH1 0x1 SLOAD CALLVALUE GT PUSH2 0x9A5 JUMPI PUSH1 0x0 DUP1 REVERT JUMPDEST PUSH1 0x2 PUSH1 0x0 CALLER PUSH20 0xFFFFFFFFFFFFFFFFFFFFFFFFFFFFFFFFFFFFFFFF AND PUSH20 0xFFFFFFFFFFFFFFFFFFFFFFFFFFFFFFFFFFFFFFFF AND DUP2 MSTORE PUSH1 0x20 ADD SWAP1 DUP2 MSTORE PUSH1 0x20 ADD PUSH1 0x0 KECCAK256 PUSH1 0x0 SWAP1 SLOAD SWAP1 PUSH2 0x100 EXP SWAP1 DIV PUSH1 0xFF AND PUSH2 0xA09 JUMPI PUSH1 0x3 PUSH1 0x0 DUP2 SLOAD DUP1 SWAP3 SWAP2 SWAP1 PUSH1 0x1 ADD SWAP2 SWAP1 POP SSTORE POP JUMPDEST PUSH1 0x1 PUSH1 0x2 PUSH1 0x0 CALLER PUSH20 0xFFFFFFFFFFFFFFFFFFFFFFFFFFFFFFFFFFFFFFFF AND PUSH20 0xFFFFFFFFFFFFFFFFFFFFFFFFFFFFFFFFFFFFFFFF AND DUP2 MSTORE PUSH1 0x20 ADD SWAP1 DUP2 MSTORE PUSH1 0x20 ADD PUSH1 0x0 KECCAK256 PUSH1 0x0 PUSH2 0x100 EXP DUP2 SLOAD DUP2 PUSH1 0xFF MUL NOT AND SWAP1 DUP4 ISZERO ISZERO MUL OR SWAP1 SSTORE POP JUMP JUMPDEST PUSH1 0x2 PUSH1 0x0 CALLER PUSH20 0xFFFFFFFFFFFFFFFFFFFFFFFFFFFFFFFFFFFFFFFF AND PUSH20 0xFFFFFFFFFFFFFFFFFFFFFFFFFFFFFFFFFFFFFFFF AND DUP2 MSTORE PUSH1 0x20 ADD SWAP1 DUP2 MSTORE PUSH1 0x20 ADD PUSH1 0x0 KECCAK256 PUSH1 0x0 SWAP1 SLOAD SWAP1 PUSH2 0x100 EXP SWAP1 DIV PUSH1 0xFF AND PUSH2 0xAB9 JUMPI PUSH1 0x0 DUP1 REVERT JUMPDEST PUSH1 0x4 DUP2 DUP2 SLOAD DUP2 LT PUSH2 0xAC6 JUMPI INVALID JUMPDEST SWAP1 PUSH1 0x0 MSTORE PUSH1 0x20 PUSH1 0x0 KECCAK256 SWAP1 PUSH1 0x5 MUL ADD PUSH1 0x4 ADD PUSH1 0x0 CALLER PUSH20 0xFFFFFFFFFFFFFFFFFFFFFFFFFFFFFFFFFFFFFFFF AND PUSH20 0xFFFFFFFFFFFFFFFFFFFFFFFFFFFFFFFFFFFFFFFF AND DUP2 MSTORE PUSH1 0x20 ADD SWAP1 DUP2 MSTORE PUSH1 0x20 ADD PUSH1 0x0 KECCAK256 PUSH1 0x0 SWAP1 SLOAD SWAP1 PUSH2 0x100 EXP SWAP1 DIV PUSH1 0xFF AND ISZERO PUSH2 0xB2C JUMPI PUSH1 0x0 DUP1 REVERT JUMPDEST PUSH1 0x1 PUSH1 0x4 DUP3 DUP2 SLOAD DUP2 LT PUSH2 0xB3B JUMPI INVALID JUMPDEST SWAP1 PUSH1 0x0 MSTORE PUSH1 0x20 PUSH1 0x0 KECCAK256 SWAP1 PUSH1 0x5 MUL ADD PUSH1 0x4 ADD PUSH1 0x0 CALLER PUSH20 0xFFFFFFFFFFFFFFFFFFFFFFFFFFFFFFFFFFFFFFFF AND PUSH20 0xFFFFFFFFFFFFFFFFFFFFFFFFFFFFFFFFFFFFFFFF AND DUP2 MSTORE PUSH1 0x20 ADD SWAP1 DUP2 MSTORE PUSH1 0x20 ADD PUSH1 0x0 KECCAK256 PUSH1 0x0 PUSH2 0x100 EXP DUP2 SLOAD DUP2 PUSH1 0xFF MUL NOT AND SWAP1 DUP4 ISZERO ISZERO MUL OR SWAP1 SSTORE POP PUSH1 0x4 DUP2 DUP2 SLOAD DUP2 LT PUSH2 0xBAD JUMPI INVALID JUMPDEST SWAP1 PUSH1 0x0 MSTORE PUSH1 0x20 PUSH1 0x0 KECCAK256 SWAP1 PUSH1 0x5 MUL ADD PUSH1 0x3 ADD PUSH1 0x0 DUP2 SLOAD DUP1 SWAP3 SWAP2 SWAP1 PUSH1 0x1 ADD SWAP2 SWAP1 POP SSTORE POP POP JUMP JUMPDEST PUSH1 0x40 MLOAD DUP1 PUSH1 0xA0 ADD PUSH1 0x40 MSTORE DUP1 PUSH1 0x60 DUP2 MSTORE PUSH1 0x20 ADD PUSH1 0x0 DUP2 MSTORE PUSH1 0x20 ADD PUSH1 0x0 PUSH20 0xFFFFFFFFFFFFFFFFFFFFFFFFFFFFFFFFFFFFFFFF AND DUP2 MSTORE PUSH1 0x20 ADD PUSH1 0x0 ISZERO ISZERO DUP2 MSTORE PUSH1 0x20 ADD PUSH1 0x0 DUP2 MSTORE POP SWAP1 JUMP JUMPDEST DUP3 DUP1 SLOAD PUSH1 0x1 DUP2 PUSH1 0x1 AND ISZERO PUSH2 0x100 MUL SUB AND PUSH1 0x2 SWAP1 DIV SWAP1 PUSH1 0x0 MSTORE PUSH1 0x20 PUSH1 0x0 KECCAK256 SWAP1 PUSH1 0x1F ADD PUSH1 0x20 SWAP1 DIV DUP2 ADD SWAP3 DUP3 PUSH1 0x1F LT PUSH2 0xC59 JUMPI DUP1 MLOAD PUSH1 0xFF NOT AND DUP4 DUP1 ADD OR DUP6 SSTORE PUSH2 0xC87 JUMP JUMPDEST DUP3 DUP1 ADD PUSH1 0x1 ADD DUP6 SSTORE DUP3 ISZERO PUSH2 0xC87 JUMPI SWAP2 DUP3 ADD JUMPDEST DUP3 DUP2 GT ISZERO PUSH2 0xC86 JUMPI DUP3 MLOAD DUP3 SSTORE SWAP2 PUSH1 0x20 ADD SWAP2 SWAP1 PUSH1 0x1 ADD SWAP1 PUSH2 0xC6B JUMP JUMPDEST JUMPDEST POP SWAP1 POP PUSH2 0xC94 SWAP2 SWAP1 PUSH2 0xC98 JUMP JUMPDEST POP SWAP1 JUMP JUMPDEST PUSH2 0xCBA SWAP2 SWAP1 JUMPDEST DUP1 DUP3 GT ISZERO PUSH2 0xCB6 JUMPI PUSH1 0x0 DUP2 PUSH1 0x0 SWAP1 SSTORE POP PUSH1 0x1 ADD PUSH2 0xC9E JUMP JUMPDEST POP SWAP1 JUMP JUMPDEST SWAP1 JUMP INVALID LOG2 PUSH5 0x6970667358 0x22 SLT KECCAK256 OR 0xE 0xE2 PUSH30 0x42F7E87820B31B79FACDADF054C698AD46E8D7E0B788D4949FD0F6E66473 PUSH16 0x6C634300060600330000000000000000 "
    },
    "gasEstimates": {
      "creation": {
        "codeDepositCost": "663000",
        "executionCost": "infinite",
        "totalCost": "infinite"
      },
      "external": {
        "approveRequest(uint256)": "46709",
        "approvers(address)": "1229",
        "approversCount()": "1027",
        "contribute()": "43765",
        "createRequest(string,uint256,address)": "infinite",
        "finalizeRequest(uint256)": "infinite",
        "getRequestCount()": "1066",
        "getSummary()": "3682",
        "manager()": "1142",
        "minimumContribution()": "1071",
        "requests(uint256)": "infinite"
      }
    },
    "methodIdentifiers": {
      "approveRequest(uint256)": "d7d1bbdb",
      "approvers(address)": "0a144391",
      "approversCount()": "82fde093",
      "contribute()": "d7bb99ba",
      "createRequest(string,uint256,address)": "8a9cfd55",
      "finalizeRequest(uint256)": "03441006",
      "getRequestCount()": "3fad1834",
      "getSummary()": "4051ddac",
      "manager()": "481c6a75",
      "minimumContribution()": "937e09b1",
      "requests(uint256)": "81d12c58"
    }
  },
  "storageLayout": {
    "storage": [
      {
        "astId": 55,
        "contract": "Campaign.sol:Campaign",
        "label": "manager",
        "offset": 0,
        "slot": "0",
        "type": "t_address_payable"
      },
      {
        "astId": 57,
        "contract": "Campaign.sol:Campaign",
        "label": "minimumContribution",
        "offset": 0,
        "slot": "1",
        "type": "t_uint256"
      },
      {
        "astId": 61,
        "contract": "Campaign.sol:Campaign",
        "label": "approvers",
        "offset": 0,
        "slot": "2",
        "type": "t_mapping(t_address,t_bool)"
      },
      {
        "astId": 63,
        "contract": "Campaign.sol:Campaign",
        "label": "approversCount",
        "offset": 0,
        "slot": "3",
        "type": "t_uint256"
      },
      {
        "astId": 66,
        "contract": "Campaign.sol:Campaign",
        "label": "requests",
        "offset": 0,
        "slot": "4",
        "type": "t_array(t_struct(Request)53_storage)dyn_storage"
      }
    ],
    "types": {
      "t_address": {
        "encoding": "inplace",
        "label": "address",
        "numberOfBytes": "20"
      },
      "t_address_payable": {
        "encoding": "inplace",
        "label": "address payable",
        "numberOfBytes": "20"
      },
      "t_array(t_struct(Request)53_storage)dyn_storage": {
        "base": "t_struct(Request)53_storage",
        "encoding": "dynamic_array",
        "label": "struct Campaign.Request[]",
        "numberOfBytes": "32"
      },
      "t_bool": {
        "encoding": "inplace",
        "label": "bool",
        "numberOfBytes": "1"
      },
      "t_mapping(t_address,t_bool)": {
        "encoding": "mapping",
        "key": "t_address",
        "label": "mapping(address => bool)",
        "numberOfBytes": "32",
        "value": "t_bool"
      },
      "t_string_storage": {
        "encoding": "bytes",
        "label": "string",
        "numberOfBytes": "32"
      },
      "t_struct(Request)53_storage": {
        "encoding": "inplace",
        "label": "struct Campaign.Request",
        "members": [
          {
            "astId": 40,
            "contract": "Campaign.sol:Campaign",
            "label": "description",
            "offset": 0,
            "slot": "0",
            "type": "t_string_storage"
          },
          {
            "astId": 42,
            "contract": "Campaign.sol:Campaign",
            "label": "value",
            "offset": 0,
            "slot": "1",
            "type": "t_uint256"
          },
          {
            "astId": 44,
            "contract": "Campaign.sol:Campaign",
            "label": "recipient",
            "offset": 0,
            "slot": "2",
            "type": "t_address_payable"
          },
          {
            "astId": 46,
            "contract": "Campaign.sol:Campaign",
            "label": "complete",
            "offset": 20,
            "slot": "2",
            "type": "t_bool"
          },
          {
            "astId": 48,
            "contract": "Campaign.sol:Campaign",
            "label": "approvalCount",
            "offset": 0,
            "slot": "3",
            "type": "t_uint256"
          },
          {
            "astId": 52,
            "contract": "Campaign.sol:Campaign",
            "label": "approvals",
            "offset": 0,
            "slot": "4",
            "type": "t_mapping(t_address,t_bool)"
          }
        ],
        "numberOfBytes": "160"
      },
      "t_uint256": {
        "encoding": "inplace",
        "label": "uint256",
        "numberOfBytes": "32"
      }
    }
  },
  "userdoc": {
    "methods": {}
  }
}